{
  "contractName": "ERC721Connector",
  "abi": [
    {
      "inputs": [
        {
          "internalType": "string",
          "name": "name",
          "type": "string"
        },
        {
          "internalType": "string",
          "name": "symbol",
          "type": "string"
        }
      ],
      "stateMutability": "nonpayable",
      "type": "constructor"
    },
    {
      "anonymous": false,
      "inputs": [
        {
          "indexed": true,
          "internalType": "address",
          "name": "from",
          "type": "address"
        },
        {
          "indexed": true,
          "internalType": "address",
          "name": "to",
          "type": "address"
        },
        {
          "indexed": true,
          "internalType": "uint256",
          "name": "tokenID",
          "type": "uint256"
        }
      ],
      "name": "Transfer",
      "type": "event"
    },
    {
      "inputs": [],
      "name": "name",
      "outputs": [
        {
          "internalType": "string",
          "name": "",
          "type": "string"
        }
      ],
      "stateMutability": "view",
      "type": "function"
    },
    {
      "inputs": [],
      "name": "symbol",
      "outputs": [
        {
          "internalType": "string",
          "name": "",
          "type": "string"
        }
      ],
      "stateMutability": "view",
      "type": "function"
    }
  ],
  "bytecode": "0x608060405234801561001057600080fd5b5060405161065f38038061065f8339818101604052810190610032919061028c565b8181816000908051906020019061004a92919061006b565b50806001908051906020019061006192919061006b565b5050505050610364565b82805461007790610333565b90600052602060002090601f01602090048101928261009957600085556100e0565b82601f106100b257805160ff19168380011785556100e0565b828001600101855582156100e0579182015b828111156100df5782518255916020019190600101906100c4565b5b5090506100ed91906100f1565b5090565b5b8082111561010a5760008160009055506001016100f2565b5090565b6000604051905090565b600080fd5b600080fd5b600080fd5b600080fd5b6000601f19601f8301169050919050565b7f4e487b7100000000000000000000000000000000000000000000000000000000600052604160045260246000fd5b6101758261012c565b810181811067ffffffffffffffff821117156101945761019361013d565b5b80604052505050565b60006101a761010e565b90506101b3828261016c565b919050565b600067ffffffffffffffff8211156101d3576101d261013d565b5b6101dc8261012c565b9050602081019050919050565b60005b838110156102075780820151818401526020810190506101ec565b83811115610216576000848401525b50505050565b600061022f61022a846101b8565b61019d565b90508281526020810184848401111561024b5761024a610127565b5b6102568482856101e9565b509392505050565b600082601f83011261027357610272610122565b5b815161028384826020860161021c565b91505092915050565b600080604083850312156102a3576102a2610118565b5b600083015167ffffffffffffffff8111156102c1576102c061011d565b5b6102cd8582860161025e565b925050602083015167ffffffffffffffff8111156102ee576102ed61011d565b5b6102fa8582860161025e565b9150509250929050565b7f4e487b7100000000000000000000000000000000000000000000000000000000600052602260045260246000fd5b6000600282049050600182168061034b57607f821691505b60208210810361035e5761035d610304565b5b50919050565b6102ec806103736000396000f3fe608060405234801561001057600080fd5b50600436106100365760003560e01c806306fdde031461003b57806395d89b4114610059575b600080fd5b610043610077565b6040516100509190610234565b60405180910390f35b610061610109565b60405161006e9190610234565b60405180910390f35b60606000805461008690610285565b80601f01602080910402602001604051908101604052809291908181526020018280546100b290610285565b80156100ff5780601f106100d4576101008083540402835291602001916100ff565b820191906000526020600020905b8154815290600101906020018083116100e257829003601f168201915b5050505050905090565b60606001805461011890610285565b80601f016020809104026020016040519081016040528092919081815260200182805461014490610285565b80156101915780601f1061016657610100808354040283529160200191610191565b820191906000526020600020905b81548152906001019060200180831161017457829003601f168201915b5050505050905090565b600081519050919050565b600082825260208201905092915050565b60005b838110156101d55780820151818401526020810190506101ba565b838111156101e4576000848401525b50505050565b6000601f19601f8301169050919050565b60006102068261019b565b61021081856101a6565b93506102208185602086016101b7565b610229816101ea565b840191505092915050565b6000602082019050818103600083015261024e81846101fb565b905092915050565b7f4e487b7100000000000000000000000000000000000000000000000000000000600052602260045260246000fd5b6000600282049050600182168061029d57607f821691505b6020821081036102b0576102af610256565b5b5091905056fea264697066735822122047414c70550c12e8313476f524950382eddc78d1a057b43c3794a60b2d5c58a564736f6c634300080d0033",
  "immutableReferences": {},
  "source": "// SPDX-License-Identifier: MIT\npragma solidity ^0.8.13;\n\nimport './ERC721Metadata.sol';\nimport './ERC721.sol';\n\n\ncontract ERC721Connector is ERC721Metadata, ERC721{\n\n    constructor(string memory name, string memory symbol) ERC721Metadata(name, symbol){\n\n    }\n\n}",
  "sourcePath": "/home/bedo/Desktop/NFT/NFT/NFT-Donem/src/contracts/ERC721Connector.sol",
  "compiler": {
    "name": "solc",
    "version": "0.8.13+commit.abaa5c0e.Emscripten.clang"
  },
  "schemaVersion": "3.4.6",
  "updatedAt": "2022-04-03T22:27:06.647Z",
  "devdoc": {
    "kind": "dev",
    "methods": {},
    "version": 1
  },
  "userdoc": {
    "kind": "user",
    "methods": {},
    "version": 1
  }
}