{
  "contractName": "ERC721Connector",
  "abi": [
    {
      "inputs": [
        {
          "internalType": "string",
          "name": "name",
          "type": "string"
        },
        {
          "internalType": "string",
          "name": "symbol",
          "type": "string"
        }
      ],
      "stateMutability": "nonpayable",
      "type": "constructor"
    },
    {
      "anonymous": false,
      "inputs": [
        {
          "indexed": true,
          "internalType": "address",
          "name": "_owner",
          "type": "address"
        },
        {
          "indexed": true,
          "internalType": "address",
          "name": "_approved",
          "type": "address"
        },
        {
          "indexed": true,
          "internalType": "uint256",
          "name": "_tokenId",
          "type": "uint256"
        }
      ],
      "name": "Approval",
      "type": "event"
    },
    {
      "anonymous": false,
      "inputs": [
        {
          "indexed": true,
          "internalType": "address",
          "name": "_from",
          "type": "address"
        },
        {
          "indexed": true,
          "internalType": "address",
          "name": "_to",
          "type": "address"
        },
        {
          "indexed": true,
          "internalType": "uint256",
          "name": "_tokenId",
          "type": "uint256"
        }
      ],
      "name": "Transfer",
      "type": "event"
    },
    {
      "inputs": [
        {
          "internalType": "address",
          "name": "_owner",
          "type": "address"
        }
      ],
      "name": "balanceOf",
      "outputs": [
        {
          "internalType": "uint256",
          "name": "",
          "type": "uint256"
        }
      ],
      "stateMutability": "view",
      "type": "function"
    },
    {
      "inputs": [],
      "name": "name",
      "outputs": [
        {
          "internalType": "string",
          "name": "",
          "type": "string"
        }
      ],
      "stateMutability": "view",
      "type": "function"
    },
    {
      "inputs": [
        {
          "internalType": "uint256",
          "name": "_tokenID",
          "type": "uint256"
        }
      ],
      "name": "ownerOf",
      "outputs": [
        {
          "internalType": "address",
          "name": "",
          "type": "address"
        }
      ],
      "stateMutability": "view",
      "type": "function"
    },
    {
      "inputs": [
        {
          "internalType": "bytes4",
          "name": "interfaceID",
          "type": "bytes4"
        }
      ],
      "name": "supportsInterface",
      "outputs": [
        {
          "internalType": "bool",
          "name": "",
          "type": "bool"
        }
      ],
      "stateMutability": "view",
      "type": "function"
    },
    {
      "inputs": [],
      "name": "symbol",
      "outputs": [
        {
          "internalType": "string",
          "name": "",
          "type": "string"
        }
      ],
      "stateMutability": "view",
      "type": "function"
    },
    {
      "inputs": [
        {
          "internalType": "uint256",
          "name": "index",
          "type": "uint256"
        }
      ],
      "name": "tokenByIndex",
      "outputs": [
        {
          "internalType": "uint256",
          "name": "",
          "type": "uint256"
        }
      ],
      "stateMutability": "view",
      "type": "function"
    },
    {
      "inputs": [
        {
          "internalType": "address",
          "name": "owner",
          "type": "address"
        },
        {
          "internalType": "uint256",
          "name": "index",
          "type": "uint256"
        }
      ],
      "name": "tokenOfOwnerByIndex",
      "outputs": [
        {
          "internalType": "uint256",
          "name": "",
          "type": "uint256"
        }
      ],
      "stateMutability": "view",
      "type": "function"
    },
    {
      "inputs": [],
      "name": "totalSupply",
      "outputs": [
        {
          "internalType": "uint256",
          "name": "",
          "type": "uint256"
        }
      ],
      "stateMutability": "view",
      "type": "function"
    },
    {
      "inputs": [
        {
          "internalType": "address",
          "name": "_from",
          "type": "address"
        },
        {
          "internalType": "address",
          "name": "_to",
          "type": "address"
        },
        {
          "internalType": "uint256",
          "name": "_tokenID",
          "type": "uint256"
        }
      ],
      "name": "transferFrom",
      "outputs": [],
      "stateMutability": "nonpayable",
      "type": "function"
    }
  ],
  "bytecode": "0x60806040523480156200001157600080fd5b50604051620016c3380380620016c3833981810160405281019062000037919062000507565b81816200006a7f01ffc9a7a5cef8baa21ed3c5c0d7e23accb804b619e9333b597f47a0d84076e2620001e360201b60201c565b620000bd7f13b182f4c0e5b2efbac0efe6cf6d756c8b89f4b79c5707a043ed9ea740574ee97f7feaf19471f34a12a7eaf32d5f3090aa2260ea8624dc8a138e74e0bf0f62307618620001e360201b60201c565b8160019080519060200190620000d5929190620002ba565b508060029080519060200190620000ee929190620002ba565b505050620001667f22c82707ba960a14c7592ffb6b8cfaa073fed0048a84cc7fa41f6b5bd8e7f2e47f3a6eb71757dfc6e784c1459d26270140c2c147d95ca985c80026fc5301c3eca17f8a7e378434598edc36d108689a030cbc9d7d465de4f74c71bae1028eed6a881b1818620001e360201b60201c565b620001db7f8230223f691b981717299fae9549350a0d894555723531f02108b1f522c1a7977f6da5e1284143cdd2d15038a59bde3be031250f00291d64494c12d967b3a4e0c37fc53637662700e6c65104059db8bba34439e0c32483ab7c34e3ccae52c73954951818620001e360201b60201c565b505062000699565b63ffffffff60e01b817bffffffffffffffffffffffffffffffffffffffffffffffffffffffff1916036200024e576040517f08c379a0000000000000000000000000000000000000000000000000000000008152600401620002459062000613565b60405180910390fd5b6001600080837bffffffffffffffffffffffffffffffffffffffffffffffffffffffff19167bffffffffffffffffffffffffffffffffffffffffffffffffffffffff1916815260200190815260200160002060006101000a81548160ff02191690831515021790555050565b828054620002c89062000664565b90600052602060002090601f016020900481019282620002ec576000855562000338565b82601f106200030757805160ff191683800117855562000338565b8280016001018555821562000338579182015b82811115620003375782518255916020019190600101906200031a565b5b5090506200034791906200034b565b5090565b5b80821115620003665760008160009055506001016200034c565b5090565b6000604051905090565b600080fd5b600080fd5b600080fd5b600080fd5b6000601f19601f8301169050919050565b7f4e487b7100000000000000000000000000000000000000000000000000000000600052604160045260246000fd5b620003d38262000388565b810181811067ffffffffffffffff82111715620003f557620003f462000399565b5b80604052505050565b60006200040a6200036a565b9050620004188282620003c8565b919050565b600067ffffffffffffffff8211156200043b576200043a62000399565b5b620004468262000388565b9050602081019050919050565b60005b838110156200047357808201518184015260208101905062000456565b8381111562000483576000848401525b50505050565b6000620004a06200049a846200041d565b620003fe565b905082815260208101848484011115620004bf57620004be62000383565b5b620004cc84828562000453565b509392505050565b600082601f830112620004ec57620004eb6200037e565b5b8151620004fe84826020860162000489565b91505092915050565b6000806040838503121562000521576200052062000374565b5b600083015167ffffffffffffffff81111562000542576200054162000379565b5b6200055085828601620004d4565b925050602083015167ffffffffffffffff81111562000574576200057362000379565b5b6200058285828601620004d4565b9150509250929050565b600082825260208201905092915050565b7f4552433136353a20496e76616c696420696e746572666163652072657175657360008201527f7400000000000000000000000000000000000000000000000000000000000000602082015250565b6000620005fb6021836200058c565b915062000608826200059d565b604082019050919050565b600060208201905081810360008301526200062e81620005ec565b9050919050565b7f4e487b7100000000000000000000000000000000000000000000000000000000600052602260045260246000fd5b600060028204905060018216806200067d57607f821691505b60208210810362000693576200069262000635565b5b50919050565b61101a80620006a96000396000f3fe608060405234801561001057600080fd5b50600436106100935760003560e01c80632f745c59116100665780632f745c59146101205780634f6ccce7146101505780636352211e1461018057806370a08231146101b057806395d89b41146101e057610093565b806301ffc9a71461009857806306fdde03146100c857806318160ddd146100e657806323b872dd14610104575b600080fd5b6100b260048036038101906100ad91906108cf565b6101fe565b6040516100bf9190610917565b60405180910390f35b6100d0610265565b6040516100dd91906109cb565b60405180910390f35b6100ee6102f7565b6040516100fb9190610a06565b60405180910390f35b61011e60048036038101906101199190610aab565b610304565b005b61013a60048036038101906101359190610afe565b610314565b6040516101479190610a06565b60405180910390f35b61016a60048036038101906101659190610b3e565b6103c4565b6040516101779190610a06565b60405180910390f35b61019a60048036038101906101959190610b3e565b610433565b6040516101a79190610b7a565b60405180910390f35b6101ca60048036038101906101c59190610b95565b6104e4565b6040516101d79190610a06565b60405180910390f35b6101e861059b565b6040516101f591906109cb565b60405180910390f35b6000806000837bffffffffffffffffffffffffffffffffffffffffffffffffffffffff19167bffffffffffffffffffffffffffffffffffffffffffffffffffffffff1916815260200190815260200160002060009054906101000a900460ff169050919050565b60606001805461027490610bf1565b80601f01602080910402602001604051908101604052809291908181526020018280546102a090610bf1565b80156102ed5780601f106102c2576101008083540402835291602001916102ed565b820191906000526020600020905b8154815290600101906020018083116102d057829003601f168201915b5050505050905090565b6000600680549050905090565b61030f83838361062d565b505050565b600061031f836104e4565b8210610360576040517f08c379a000000000000000000000000000000000000000000000000000000000815260040161035790610c94565b60405180910390fd5b600860008473ffffffffffffffffffffffffffffffffffffffff1673ffffffffffffffffffffffffffffffffffffffff16815260200190815260200160002082815481106103b1576103b0610cb4565b5b9060005260206000200154905092915050565b6000600680549050821061040d576040517f08c379a000000000000000000000000000000000000000000000000000000000815260040161040490610d55565b60405180910390fd5b6006828154811061042157610420610cb4565b5b90600052602060002001549050919050565b6000806003600084815260200190815260200160002060009054906101000a900473ffffffffffffffffffffffffffffffffffffffff169050600073ffffffffffffffffffffffffffffffffffffffff168173ffffffffffffffffffffffffffffffffffffffff16036104db576040517f08c379a00000000000000000000000000000000000000000000000000000000081526004016104d290610de7565b60405180910390fd5b80915050919050565b60008073ffffffffffffffffffffffffffffffffffffffff168273ffffffffffffffffffffffffffffffffffffffff1603610554576040517f08c379a000000000000000000000000000000000000000000000000000000000815260040161054b90610de7565b60405180910390fd5b600460008373ffffffffffffffffffffffffffffffffffffffff1673ffffffffffffffffffffffffffffffffffffffff168152602001908152602001600020549050919050565b6060600280546105aa90610bf1565b80601f01602080910402602001604051908101604052809291908181526020018280546105d690610bf1565b80156106235780601f106105f857610100808354040283529160200191610623565b820191906000526020600020905b81548152906001019060200180831161060657829003601f168201915b5050505050905090565b600073ffffffffffffffffffffffffffffffffffffffff168273ffffffffffffffffffffffffffffffffffffffff160361069c576040517f08c379a000000000000000000000000000000000000000000000000000000000815260040161069390610e79565b60405180910390fd5b8273ffffffffffffffffffffffffffffffffffffffff166106bc82610433565b73ffffffffffffffffffffffffffffffffffffffff1614610712576040517f08c379a000000000000000000000000000000000000000000000000000000000815260040161070990610f0b565b60405180910390fd5b816003600083815260200190815260200160002060006101000a81548173ffffffffffffffffffffffffffffffffffffffff021916908373ffffffffffffffffffffffffffffffffffffffff1602179055506001600460008573ffffffffffffffffffffffffffffffffffffffff1673ffffffffffffffffffffffffffffffffffffffff16815260200190815260200160002060008282546107b49190610f5a565b925050819055506001600460008473ffffffffffffffffffffffffffffffffffffffff1673ffffffffffffffffffffffffffffffffffffffff168152602001908152602001600020600082825461080b9190610f8e565b92505081905550808273ffffffffffffffffffffffffffffffffffffffff168473ffffffffffffffffffffffffffffffffffffffff167fddf252ad1be2c89b69c2b068fc378daa952ba7f163c4a11628f55a4df523b3ef60405160405180910390a4505050565b600080fd5b60007fffffffff0000000000000000000000000000000000000000000000000000000082169050919050565b6108ac81610877565b81146108b757600080fd5b50565b6000813590506108c9816108a3565b92915050565b6000602082840312156108e5576108e4610872565b5b60006108f3848285016108ba565b91505092915050565b60008115159050919050565b610911816108fc565b82525050565b600060208201905061092c6000830184610908565b92915050565b600081519050919050565b600082825260208201905092915050565b60005b8381101561096c578082015181840152602081019050610951565b8381111561097b576000848401525b50505050565b6000601f19601f8301169050919050565b600061099d82610932565b6109a7818561093d565b93506109b781856020860161094e565b6109c081610981565b840191505092915050565b600060208201905081810360008301526109e58184610992565b905092915050565b6000819050919050565b610a00816109ed565b82525050565b6000602082019050610a1b60008301846109f7565b92915050565b600073ffffffffffffffffffffffffffffffffffffffff82169050919050565b6000610a4c82610a21565b9050919050565b610a5c81610a41565b8114610a6757600080fd5b50565b600081359050610a7981610a53565b92915050565b610a88816109ed565b8114610a9357600080fd5b50565b600081359050610aa581610a7f565b92915050565b600080600060608486031215610ac457610ac3610872565b5b6000610ad286828701610a6a565b9350506020610ae386828701610a6a565b9250506040610af486828701610a96565b9150509250925092565b60008060408385031215610b1557610b14610872565b5b6000610b2385828601610a6a565b9250506020610b3485828601610a96565b9150509250929050565b600060208284031215610b5457610b53610872565b5b6000610b6284828501610a96565b91505092915050565b610b7481610a41565b82525050565b6000602082019050610b8f6000830184610b6b565b92915050565b600060208284031215610bab57610baa610872565b5b6000610bb984828501610a6a565b91505092915050565b7f4e487b7100000000000000000000000000000000000000000000000000000000600052602260045260246000fd5b60006002820490506001821680610c0957607f821691505b602082108103610c1c57610c1b610bc2565b5b50919050565b7f455243373231456e756d3a206f776e657220696e646578206f7574206f66206260008201527f6f756e6473000000000000000000000000000000000000000000000000000000602082015250565b6000610c7e60258361093d565b9150610c8982610c22565b604082019050919050565b60006020820190508181036000830152610cad81610c71565b9050919050565b7f4e487b7100000000000000000000000000000000000000000000000000000000600052603260045260246000fd5b7f455243373231456e756d3a20676c6f62616c20696e646578206f7574206f662060008201527f626f756e64730000000000000000000000000000000000000000000000000000602082015250565b6000610d3f60268361093d565b9150610d4a82610ce3565b604082019050919050565b60006020820190508181036000830152610d6e81610d32565b9050919050565b7f4552433732313a4f776e657220717565727920666f74206e6f6e2d657869737460008201527f656e7320746f6b656e0000000000000000000000000000000000000000000000602082015250565b6000610dd160298361093d565b9150610ddc82610d75565b604082019050919050565b60006020820190508181036000830152610e0081610dc4565b9050919050565b7f4552433732313a205472616e7366657220746f20746865207a65726f2061646460008201527f7265737300000000000000000000000000000000000000000000000000000000602082015250565b6000610e6360248361093d565b9150610e6e82610e07565b604082019050919050565b60006020820190508181036000830152610e9281610e56565b9050919050565b7f544552433732313a20547279696e6720746f20747261736e666572206120746f60008201527f6b656e206164647265737320646f6573206e6f74206f776e0000000000000000602082015250565b6000610ef560388361093d565b9150610f0082610e99565b604082019050919050565b60006020820190508181036000830152610f2481610ee8565b9050919050565b7f4e487b7100000000000000000000000000000000000000000000000000000000600052601160045260246000fd5b6000610f65826109ed565b9150610f70836109ed565b925082821015610f8357610f82610f2b565b5b828203905092915050565b6000610f99826109ed565b9150610fa4836109ed565b9250827fffffffffffffffffffffffffffffffffffffffffffffffffffffffffffffffff03821115610fd957610fd8610f2b565b5b82820190509291505056fea2646970667358221220dd478e7d189a9180aacda489449eda964b219bd9e3039e8ceb815ec249fb512d64736f6c634300080d0033",
  "immutableReferences": {},
  "source": "// SPDX-License-Identifier: MIT\npragma solidity ^0.8.13;\n\nimport './ERC721Enumerable.sol';\nimport './ERC721Metadata.sol';\n\n\ncontract ERC721Connector is ERC721Metadata, ERC721Enumerable{\n\n    constructor(string memory name, string memory symbol) ERC721Metadata(name, symbol){\n\n    }\n\n}",
  "sourcePath": "/home/bedoeth/Documents/GitHub/NFT-Donem/src/contracts/ERC721Connector.sol",
  "compiler": {
    "name": "solc",
    "version": "0.8.13+commit.abaa5c0e.Emscripten.clang"
  },
  "schemaVersion": "3.4.7",
  "updatedAt": "2022-05-17T07:51:24.812Z",
  "devdoc": {
    "kind": "dev",
    "methods": {
      "supportsInterface(bytes4)": {
        "details": "Interface identification is specified in ERC-165. This function  uses less than 30,000 gas.",
        "params": {
          "interfaceID": "The interface identifier, as specified in ERC-165"
        },
        "returns": {
          "_0": "`true` if the contract implements `interfaceID` and  `interfaceID` is not 0xffffffff, `false` otherwise"
        }
      }
    },
    "version": 1
  },
  "userdoc": {
    "kind": "user",
    "methods": {
      "supportsInterface(bytes4)": {
        "notice": "Query if a contract implements an interface"
      }
    },
    "version": 1
  }
}