{
  "contractName": "ERC721Connector",
  "abi": [
    {
      "inputs": [
        {
          "internalType": "string",
          "name": "name",
          "type": "string"
        },
        {
          "internalType": "string",
          "name": "symbol",
          "type": "string"
        }
      ],
      "stateMutability": "nonpayable",
      "type": "constructor"
    },
    {
      "anonymous": false,
      "inputs": [
        {
          "indexed": true,
          "internalType": "address",
          "name": "from",
          "type": "address"
        },
        {
          "indexed": true,
          "internalType": "address",
          "name": "to",
          "type": "address"
        },
        {
          "indexed": true,
          "internalType": "uint256",
          "name": "tokenID",
          "type": "uint256"
        }
      ],
      "name": "Transfer",
      "type": "event"
    },
    {
      "inputs": [
        {
          "internalType": "address",
          "name": "_owner",
          "type": "address"
        }
      ],
      "name": "balanceOf",
      "outputs": [
        {
          "internalType": "uint256",
          "name": "",
          "type": "uint256"
        }
      ],
      "stateMutability": "view",
      "type": "function"
    },
    {
      "inputs": [],
      "name": "name",
      "outputs": [
        {
          "internalType": "string",
          "name": "",
          "type": "string"
        }
      ],
      "stateMutability": "view",
      "type": "function"
    },
    {
      "inputs": [
        {
          "internalType": "uint256",
          "name": "_tokenID",
          "type": "uint256"
        }
      ],
      "name": "ownerOf",
      "outputs": [
        {
          "internalType": "address",
          "name": "",
          "type": "address"
        }
      ],
      "stateMutability": "view",
      "type": "function"
    },
    {
      "inputs": [],
      "name": "symbol",
      "outputs": [
        {
          "internalType": "string",
          "name": "",
          "type": "string"
        }
      ],
      "stateMutability": "view",
      "type": "function"
    },
    {
      "inputs": [
        {
          "internalType": "uint256",
          "name": "index",
          "type": "uint256"
        }
      ],
      "name": "tokenByINdex",
      "outputs": [
        {
          "internalType": "uint256",
          "name": "",
          "type": "uint256"
        }
      ],
      "stateMutability": "view",
      "type": "function"
    },
    {
      "inputs": [
        {
          "internalType": "address",
          "name": "owner",
          "type": "address"
        },
        {
          "internalType": "uint256",
          "name": "index",
          "type": "uint256"
        }
      ],
      "name": "tokenOfOwnerByIndex",
      "outputs": [
        {
          "internalType": "uint256",
          "name": "",
          "type": "uint256"
        }
      ],
      "stateMutability": "view",
      "type": "function"
    },
    {
      "inputs": [],
      "name": "totalSupply",
      "outputs": [
        {
          "internalType": "uint256",
          "name": "",
          "type": "uint256"
        }
      ],
      "stateMutability": "view",
      "type": "function"
    }
  ],
  "bytecode": "0x60806040523480156200001157600080fd5b5060405162000dcc38038062000dcc8339818101604052810190620000379190620002c2565b818181600090805190602001906200005192919062000075565b5080600190805190602001906200006a92919062000075565b5050505050620003ab565b828054620000839062000376565b90600052602060002090601f016020900481019282620000a75760008555620000f3565b82601f10620000c257805160ff1916838001178555620000f3565b82800160010185558215620000f3579182015b82811115620000f2578251825591602001919060010190620000d5565b5b50905062000102919062000106565b5090565b5b808211156200012157600081600090555060010162000107565b5090565b6000604051905090565b600080fd5b600080fd5b600080fd5b600080fd5b6000601f19601f8301169050919050565b7f4e487b7100000000000000000000000000000000000000000000000000000000600052604160045260246000fd5b6200018e8262000143565b810181811067ffffffffffffffff82111715620001b057620001af62000154565b5b80604052505050565b6000620001c562000125565b9050620001d3828262000183565b919050565b600067ffffffffffffffff821115620001f657620001f562000154565b5b620002018262000143565b9050602081019050919050565b60005b838110156200022e57808201518184015260208101905062000211565b838111156200023e576000848401525b50505050565b60006200025b6200025584620001d8565b620001b9565b9050828152602081018484840111156200027a57620002796200013e565b5b620002878482856200020e565b509392505050565b600082601f830112620002a757620002a662000139565b5b8151620002b984826020860162000244565b91505092915050565b60008060408385031215620002dc57620002db6200012f565b5b600083015167ffffffffffffffff811115620002fd57620002fc62000134565b5b6200030b858286016200028f565b925050602083015167ffffffffffffffff8111156200032f576200032e62000134565b5b6200033d858286016200028f565b9150509250929050565b7f4e487b7100000000000000000000000000000000000000000000000000000000600052602260045260246000fd5b600060028204905060018216806200038f57607f821691505b602082108103620003a557620003a462000347565b5b50919050565b610a1180620003bb6000396000f3fe608060405234801561001057600080fd5b506004361061007d5760003560e01c80636352211e1161005b5780636352211e146100ee57806370a082311461011e57806395d89b411461014e578063cd66db701461016c5761007d565b806306fdde031461008257806318160ddd146100a05780632f745c59146100be575b600080fd5b61008a61019c565b60405161009791906105ed565b60405180910390f35b6100a861022e565b6040516100b59190610628565b60405180910390f35b6100d860048036038101906100d391906106d2565b61023b565b6040516100e59190610628565b60405180910390f35b61010860048036038101906101039190610712565b6102eb565b604051610115919061074e565b60405180910390f35b61013860048036038101906101339190610769565b61039c565b6040516101459190610628565b60405180910390f35b610156610453565b60405161016391906105ed565b60405180910390f35b61018660048036038101906101819190610712565b6104e5565b6040516101939190610628565b60405180910390f35b6060600080546101ab906107c5565b80601f01602080910402602001604051908101604052809291908181526020018280546101d7906107c5565b80156102245780601f106101f957610100808354040283529160200191610224565b820191906000526020600020905b81548152906001019060200180831161020757829003601f168201915b5050505050905090565b6000600480549050905090565b60006102468361039c565b8210610287576040517f08c379a000000000000000000000000000000000000000000000000000000000815260040161027e90610868565b60405180910390fd5b600660008473ffffffffffffffffffffffffffffffffffffffff1673ffffffffffffffffffffffffffffffffffffffff16815260200190815260200160002082815481106102d8576102d7610888565b5b9060005260206000200154905092915050565b6000806002600084815260200190815260200160002060009054906101000a900473ffffffffffffffffffffffffffffffffffffffff169050600073ffffffffffffffffffffffffffffffffffffffff168173ffffffffffffffffffffffffffffffffffffffff1603610393576040517f08c379a000000000000000000000000000000000000000000000000000000000815260040161038a90610929565b60405180910390fd5b80915050919050565b60008073ffffffffffffffffffffffffffffffffffffffff168273ffffffffffffffffffffffffffffffffffffffff160361040c576040517f08c379a000000000000000000000000000000000000000000000000000000000815260040161040390610929565b60405180910390fd5b600360008373ffffffffffffffffffffffffffffffffffffffff1673ffffffffffffffffffffffffffffffffffffffff168152602001908152602001600020549050919050565b606060018054610462906107c5565b80601f016020809104026020016040519081016040528092919081815260200182805461048e906107c5565b80156104db5780601f106104b0576101008083540402835291602001916104db565b820191906000526020600020905b8154815290600101906020018083116104be57829003601f168201915b5050505050905090565b6000600480549050821061052e576040517f08c379a0000000000000000000000000000000000000000000000000000000008152600401610525906109bb565b60405180910390fd5b6004828154811061054257610541610888565b5b90600052602060002001549050919050565b600081519050919050565b600082825260208201905092915050565b60005b8381101561058e578082015181840152602081019050610573565b8381111561059d576000848401525b50505050565b6000601f19601f8301169050919050565b60006105bf82610554565b6105c9818561055f565b93506105d9818560208601610570565b6105e2816105a3565b840191505092915050565b6000602082019050818103600083015261060781846105b4565b905092915050565b6000819050919050565b6106228161060f565b82525050565b600060208201905061063d6000830184610619565b92915050565b600080fd5b600073ffffffffffffffffffffffffffffffffffffffff82169050919050565b600061067382610648565b9050919050565b61068381610668565b811461068e57600080fd5b50565b6000813590506106a08161067a565b92915050565b6106af8161060f565b81146106ba57600080fd5b50565b6000813590506106cc816106a6565b92915050565b600080604083850312156106e9576106e8610643565b5b60006106f785828601610691565b9250506020610708858286016106bd565b9150509250929050565b60006020828403121561072857610727610643565b5b6000610736848285016106bd565b91505092915050565b61074881610668565b82525050565b6000602082019050610763600083018461073f565b92915050565b60006020828403121561077f5761077e610643565b5b600061078d84828501610691565b91505092915050565b7f4e487b7100000000000000000000000000000000000000000000000000000000600052602260045260246000fd5b600060028204905060018216806107dd57607f821691505b6020821081036107f0576107ef610796565b5b50919050565b7f455243373231456e756d3a206f776e657220696e646578206f7574206f66206260008201527f6f756e6473000000000000000000000000000000000000000000000000000000602082015250565b600061085260258361055f565b915061085d826107f6565b604082019050919050565b6000602082019050818103600083015261088181610845565b9050919050565b7f4e487b7100000000000000000000000000000000000000000000000000000000600052603260045260246000fd5b7f4552433732313a4f776e657220717565727920666f74206e6f6e2d657869737460008201527f656e7320746f6b656e0000000000000000000000000000000000000000000000602082015250565b600061091360298361055f565b915061091e826108b7565b604082019050919050565b6000602082019050818103600083015261094281610906565b9050919050565b7f455243373231456e756d3a20676c6f62616c20696e646578206f7574206f662060008201527f626f756e64730000000000000000000000000000000000000000000000000000602082015250565b60006109a560268361055f565b91506109b082610949565b604082019050919050565b600060208201905081810360008301526109d481610998565b905091905056fea2646970667358221220dbad17e06d8448fd3c7fcfdcf8626a7009b13247ef165e7d9c9d3bc35bdf0e6c64736f6c634300080d0033",
  "immutableReferences": {},
  "source": "// SPDX-License-Identifier: MIT\npragma solidity ^0.8.13;\n\nimport './ERC721Enumerable.sol';\nimport './ERC721Metadata.sol';\n\n\ncontract ERC721Connector is ERC721Metadata, ERC721Enumerable{\n\n    constructor(string memory name, string memory symbol) ERC721Metadata(name, symbol){\n\n    }\n\n}",
  "sourcePath": "/home/bedo/Desktop/NFT-Donem/src/contracts/ERC721Connector.sol",
  "compiler": {
    "name": "solc",
    "version": "0.8.13+commit.abaa5c0e.Emscripten.clang"
  },
  "schemaVersion": "3.4.6",
  "updatedAt": "2022-04-12T01:16:11.535Z",
  "devdoc": {
    "kind": "dev",
    "methods": {},
    "version": 1
  },
  "userdoc": {
    "kind": "user",
    "methods": {},
    "version": 1
  }
}