{
  "contractName": "ERC721Enumerable",
  "abi": [
    {
      "anonymous": false,
      "inputs": [
        {
          "indexed": true,
          "internalType": "address",
          "name": "from",
          "type": "address"
        },
        {
          "indexed": true,
          "internalType": "address",
          "name": "to",
          "type": "address"
        },
        {
          "indexed": true,
          "internalType": "uint256",
          "name": "tokenID",
          "type": "uint256"
        }
      ],
      "name": "Transfer",
      "type": "event"
    },
    {
      "inputs": [
        {
          "internalType": "address",
          "name": "_owner",
          "type": "address"
        }
      ],
      "name": "balanceOf",
      "outputs": [
        {
          "internalType": "uint256",
          "name": "",
          "type": "uint256"
        }
      ],
      "stateMutability": "view",
      "type": "function"
    },
    {
      "inputs": [
        {
          "internalType": "uint256",
          "name": "_tokenID",
          "type": "uint256"
        }
      ],
      "name": "ownerOf",
      "outputs": [
        {
          "internalType": "address",
          "name": "",
          "type": "address"
        }
      ],
      "stateMutability": "view",
      "type": "function"
    },
    {
      "inputs": [
        {
          "internalType": "address",
          "name": "_from",
          "type": "address"
        },
        {
          "internalType": "address",
          "name": "_to",
          "type": "address"
        },
        {
          "internalType": "uint256",
          "name": "_tokenID",
          "type": "uint256"
        }
      ],
      "name": "transferFrom",
      "outputs": [],
      "stateMutability": "nonpayable",
      "type": "function"
    },
    {
      "inputs": [
        {
          "internalType": "uint256",
          "name": "index",
          "type": "uint256"
        }
      ],
      "name": "tokenByIndex",
      "outputs": [
        {
          "internalType": "uint256",
          "name": "",
          "type": "uint256"
        }
      ],
      "stateMutability": "view",
      "type": "function"
    },
    {
      "inputs": [
        {
          "internalType": "address",
          "name": "owner",
          "type": "address"
        },
        {
          "internalType": "uint256",
          "name": "index",
          "type": "uint256"
        }
      ],
      "name": "tokenOfOwnerByIndex",
      "outputs": [
        {
          "internalType": "uint256",
          "name": "",
          "type": "uint256"
        }
      ],
      "stateMutability": "view",
      "type": "function"
    },
    {
      "inputs": [],
      "name": "totalSupply",
      "outputs": [
        {
          "internalType": "uint256",
          "name": "",
          "type": "uint256"
        }
      ],
      "stateMutability": "view",
      "type": "function"
    }
  ],
  "bytecode": "0x608060405234801561001057600080fd5b50610c29806100206000396000f3fe608060405234801561001057600080fd5b50600436106100625760003560e01c806318160ddd1461006757806323b872dd146100855780632f745c59146100a15780634f6ccce7146100d15780636352211e1461010157806370a0823114610131575b600080fd5b61006f610161565b60405161007c919061065f565b60405180910390f35b61009f600480360381019061009a9190610709565b61016e565b005b6100bb60048036038101906100b6919061075c565b61017e565b6040516100c8919061065f565b60405180910390f35b6100eb60048036038101906100e6919061079c565b61022e565b6040516100f8919061065f565b60405180910390f35b61011b6004803603810190610116919061079c565b61029d565b60405161012891906107d8565b60405180910390f35b61014b600480360381019061014691906107f3565b61034d565b604051610158919061065f565b60405180910390f35b6000600380549050905090565b610179838383610404565b505050565b60006101898361034d565b82106101ca576040517f08c379a00000000000000000000000000000000000000000000000000000000081526004016101c1906108a3565b60405180910390fd5b600560008473ffffffffffffffffffffffffffffffffffffffff1673ffffffffffffffffffffffffffffffffffffffff168152602001908152602001600020828154811061021b5761021a6108c3565b5b9060005260206000200154905092915050565b60006003805490508210610277576040517f08c379a000000000000000000000000000000000000000000000000000000000815260040161026e90610964565b60405180910390fd5b6003828154811061028b5761028a6108c3565b5b90600052602060002001549050919050565b60008060008084815260200190815260200160002060009054906101000a900473ffffffffffffffffffffffffffffffffffffffff169050600073ffffffffffffffffffffffffffffffffffffffff168173ffffffffffffffffffffffffffffffffffffffff1603610344576040517f08c379a000000000000000000000000000000000000000000000000000000000815260040161033b906109f6565b60405180910390fd5b80915050919050565b60008073ffffffffffffffffffffffffffffffffffffffff168273ffffffffffffffffffffffffffffffffffffffff16036103bd576040517f08c379a00000000000000000000000000000000000000000000000000000000081526004016103b4906109f6565b60405180910390fd5b600160008373ffffffffffffffffffffffffffffffffffffffff1673ffffffffffffffffffffffffffffffffffffffff168152602001908152602001600020549050919050565b600073ffffffffffffffffffffffffffffffffffffffff168273ffffffffffffffffffffffffffffffffffffffff1603610473576040517f08c379a000000000000000000000000000000000000000000000000000000000815260040161046a90610a88565b60405180910390fd5b8273ffffffffffffffffffffffffffffffffffffffff166104938261029d565b73ffffffffffffffffffffffffffffffffffffffff16146104e9576040517f08c379a00000000000000000000000000000000000000000000000000000000081526004016104e090610b1a565b60405180910390fd5b8160008083815260200190815260200160002060006101000a81548173ffffffffffffffffffffffffffffffffffffffff021916908373ffffffffffffffffffffffffffffffffffffffff16021790555060018060008573ffffffffffffffffffffffffffffffffffffffff1673ffffffffffffffffffffffffffffffffffffffff16815260200190815260200160002060008282546105899190610b69565b9250508190555060018060008473ffffffffffffffffffffffffffffffffffffffff1673ffffffffffffffffffffffffffffffffffffffff16815260200190815260200160002060008282546105df9190610b9d565b92505081905550808273ffffffffffffffffffffffffffffffffffffffff168473ffffffffffffffffffffffffffffffffffffffff167fddf252ad1be2c89b69c2b068fc378daa952ba7f163c4a11628f55a4df523b3ef60405160405180910390a4505050565b6000819050919050565b61065981610646565b82525050565b60006020820190506106746000830184610650565b92915050565b600080fd5b600073ffffffffffffffffffffffffffffffffffffffff82169050919050565b60006106aa8261067f565b9050919050565b6106ba8161069f565b81146106c557600080fd5b50565b6000813590506106d7816106b1565b92915050565b6106e681610646565b81146106f157600080fd5b50565b600081359050610703816106dd565b92915050565b6000806000606084860312156107225761072161067a565b5b6000610730868287016106c8565b9350506020610741868287016106c8565b9250506040610752868287016106f4565b9150509250925092565b600080604083850312156107735761077261067a565b5b6000610781858286016106c8565b9250506020610792858286016106f4565b9150509250929050565b6000602082840312156107b2576107b161067a565b5b60006107c0848285016106f4565b91505092915050565b6107d28161069f565b82525050565b60006020820190506107ed60008301846107c9565b92915050565b6000602082840312156108095761080861067a565b5b6000610817848285016106c8565b91505092915050565b600082825260208201905092915050565b7f455243373231456e756d3a206f776e657220696e646578206f7574206f66206260008201527f6f756e6473000000000000000000000000000000000000000000000000000000602082015250565b600061088d602583610820565b915061089882610831565b604082019050919050565b600060208201905081810360008301526108bc81610880565b9050919050565b7f4e487b7100000000000000000000000000000000000000000000000000000000600052603260045260246000fd5b7f455243373231456e756d3a20676c6f62616c20696e646578206f7574206f662060008201527f626f756e64730000000000000000000000000000000000000000000000000000602082015250565b600061094e602683610820565b9150610959826108f2565b604082019050919050565b6000602082019050818103600083015261097d81610941565b9050919050565b7f4552433732313a4f776e657220717565727920666f74206e6f6e2d657869737460008201527f656e7320746f6b656e0000000000000000000000000000000000000000000000602082015250565b60006109e0602983610820565b91506109eb82610984565b604082019050919050565b60006020820190508181036000830152610a0f816109d3565b9050919050565b7f4552433732313a205472616e7366657220746f20746865207a65726f2061646460008201527f7265737300000000000000000000000000000000000000000000000000000000602082015250565b6000610a72602483610820565b9150610a7d82610a16565b604082019050919050565b60006020820190508181036000830152610aa181610a65565b9050919050565b7f544552433732313a20547279696e6720746f20747261736e666572206120746f60008201527f6b656e206164647265737320646f6573206e6f74206f776e0000000000000000602082015250565b6000610b04603883610820565b9150610b0f82610aa8565b604082019050919050565b60006020820190508181036000830152610b3381610af7565b9050919050565b7f4e487b7100000000000000000000000000000000000000000000000000000000600052601160045260246000fd5b6000610b7482610646565b9150610b7f83610646565b925082821015610b9257610b91610b3a565b5b828203905092915050565b6000610ba882610646565b9150610bb383610646565b9250827fffffffffffffffffffffffffffffffffffffffffffffffffffffffffffffffff03821115610be857610be7610b3a565b5b82820190509291505056fea2646970667358221220b7f1d8f4940f08cc8b3bb021df9ca2b1fa814f39ff27db017cc85ef704d6109d64736f6c634300080d0033",
  "immutableReferences": {},
  "source": "// SPDX-License-Identifier: MIT\npragma solidity ^0.8.13;\n\nimport './ERC721.sol';\n\ncontract ERC721Enumerable is ERC721{\n\n    uint256[] private _allTokens;\n\n    //mapping from tokenID to position in _allTokens array\n    mapping(uint256 => uint256) private _allTokensIndex;\n\n    //mapping of owner to list of all owner token ids\n    mapping(address => uint256[]) private _ownedTokens;\n\n    //mapping from tokenID index of the owner tokens list\n    mapping(uint256 => uint256) private _ownedTokensIndex; \n\n    function _mint(address to, uint256 tokenID) internal override(ERC721) {\n        super._mint(to,tokenID);\n        _addTokensToAllTokenEnumeration(tokenID);\n        _addTokensToOwnerEnumeration(to, tokenID);\n    }\n\n    //add tokens to the _allTokens array and set the positions of the token index\n    function _addTokensToAllTokenEnumeration(uint256 tokenID) private{\n        _allTokensIndex[tokenID] = _allTokens.length; //tokenID position\n        _allTokens.push(tokenID);\n    }\n\n    \n    function _addTokensToOwnerEnumeration(address to, uint256 tokenID) private{\n        _ownedTokens[to].push(tokenID);\n        _ownedTokensIndex[tokenID] = _ownedTokens[to].length;\n    }\n\n    function tokenByIndex(uint256 index) public view returns(uint256) {\n        require(index < _allTokens.length, \"ERC721Enum: global index out of bounds\");\n        return _allTokens[index];\n    }\n\n    function tokenOfOwnerByIndex(address owner, uint256 index) public view returns(uint256){\n        require(index < balanceOf(owner), \"ERC721Enum: owner index out of bounds\");\n        return _ownedTokens[owner][index]; \n    }\n\n    //return the total supply of the _allTokens array\n    function totalSupply() public view returns(uint256){\n        return _allTokens.length;\n    }\n}",
  "sourcePath": "/home/bedoeth/Documents/GitHub/NFT-Donem/src/contracts/ERC721Enumerable.sol",
  "compiler": {
    "name": "solc",
    "version": "0.8.13+commit.abaa5c0e.Emscripten.clang"
  },
  "schemaVersion": "3.4.7",
  "updatedAt": "2022-04-14T02:16:10.731Z",
  "devdoc": {
    "kind": "dev",
    "methods": {},
    "version": 1
  },
  "userdoc": {
    "kind": "user",
    "methods": {},
    "version": 1
  }
}