{
  "contractName": "ERC721Connector",
  "abi": [
    {
      "inputs": [
        {
          "internalType": "string",
          "name": "name",
          "type": "string"
        },
        {
          "internalType": "string",
          "name": "symbol",
          "type": "string"
        }
      ],
      "stateMutability": "nonpayable",
      "type": "constructor"
    },
    {
      "anonymous": false,
      "inputs": [
        {
          "indexed": true,
          "internalType": "address",
          "name": "from",
          "type": "address"
        },
        {
          "indexed": true,
          "internalType": "address",
          "name": "to",
          "type": "address"
        },
        {
          "indexed": true,
          "internalType": "uint256",
          "name": "tokenID",
          "type": "uint256"
        }
      ],
      "name": "Transfer",
      "type": "event"
    },
    {
      "inputs": [
        {
          "internalType": "address",
          "name": "_owner",
          "type": "address"
        }
      ],
      "name": "balanceOf",
      "outputs": [
        {
          "internalType": "uint256",
          "name": "",
          "type": "uint256"
        }
      ],
      "stateMutability": "view",
      "type": "function"
    },
    {
      "inputs": [],
      "name": "name",
      "outputs": [
        {
          "internalType": "string",
          "name": "",
          "type": "string"
        }
      ],
      "stateMutability": "view",
      "type": "function"
    },
    {
      "inputs": [
        {
          "internalType": "uint256",
          "name": "_tokenID",
          "type": "uint256"
        }
      ],
      "name": "ownerOf",
      "outputs": [
        {
          "internalType": "address",
          "name": "",
          "type": "address"
        }
      ],
      "stateMutability": "view",
      "type": "function"
    },
    {
      "inputs": [],
      "name": "symbol",
      "outputs": [
        {
          "internalType": "string",
          "name": "",
          "type": "string"
        }
      ],
      "stateMutability": "view",
      "type": "function"
    },
    {
      "inputs": [
        {
          "internalType": "uint256",
          "name": "index",
          "type": "uint256"
        }
      ],
      "name": "tokenByIndex",
      "outputs": [
        {
          "internalType": "uint256",
          "name": "",
          "type": "uint256"
        }
      ],
      "stateMutability": "view",
      "type": "function"
    },
    {
      "inputs": [
        {
          "internalType": "address",
          "name": "owner",
          "type": "address"
        },
        {
          "internalType": "uint256",
          "name": "index",
          "type": "uint256"
        }
      ],
      "name": "tokenOfOwnerByIndex",
      "outputs": [
        {
          "internalType": "uint256",
          "name": "",
          "type": "uint256"
        }
      ],
      "stateMutability": "view",
      "type": "function"
    },
    {
      "inputs": [],
      "name": "totalSupply",
      "outputs": [
        {
          "internalType": "uint256",
          "name": "",
          "type": "uint256"
        }
      ],
      "stateMutability": "view",
      "type": "function"
    },
    {
      "inputs": [
        {
          "internalType": "address",
          "name": "_from",
          "type": "address"
        },
        {
          "internalType": "address",
          "name": "_to",
          "type": "address"
        },
        {
          "internalType": "uint256",
          "name": "_tokenID",
          "type": "uint256"
        }
      ],
      "name": "transferFrom",
      "outputs": [],
      "stateMutability": "nonpayable",
      "type": "function"
    }
  ],
  "bytecode": "0x60806040523480156200001157600080fd5b5060405162001278380380620012788339818101604052810190620000379190620002c2565b818181600090805190602001906200005192919062000075565b5080600190805190602001906200006a92919062000075565b5050505050620003ab565b828054620000839062000376565b90600052602060002090601f016020900481019282620000a75760008555620000f3565b82601f10620000c257805160ff1916838001178555620000f3565b82800160010185558215620000f3579182015b82811115620000f2578251825591602001919060010190620000d5565b5b50905062000102919062000106565b5090565b5b808211156200012157600081600090555060010162000107565b5090565b6000604051905090565b600080fd5b600080fd5b600080fd5b600080fd5b6000601f19601f8301169050919050565b7f4e487b7100000000000000000000000000000000000000000000000000000000600052604160045260246000fd5b6200018e8262000143565b810181811067ffffffffffffffff82111715620001b057620001af62000154565b5b80604052505050565b6000620001c562000125565b9050620001d3828262000183565b919050565b600067ffffffffffffffff821115620001f657620001f562000154565b5b620002018262000143565b9050602081019050919050565b60005b838110156200022e57808201518184015260208101905062000211565b838111156200023e576000848401525b50505050565b60006200025b6200025584620001d8565b620001b9565b9050828152602081018484840111156200027a57620002796200013e565b5b620002878482856200020e565b509392505050565b600082601f830112620002a757620002a662000139565b5b8151620002b984826020860162000244565b91505092915050565b60008060408385031215620002dc57620002db6200012f565b5b600083015167ffffffffffffffff811115620002fd57620002fc62000134565b5b6200030b858286016200028f565b925050602083015167ffffffffffffffff8111156200032f576200032e62000134565b5b6200033d858286016200028f565b9150509250929050565b7f4e487b7100000000000000000000000000000000000000000000000000000000600052602260045260246000fd5b600060028204905060018216806200038f57607f821691505b602082108103620003a557620003a462000347565b5b50919050565b610ebd80620003bb6000396000f3fe608060405234801561001057600080fd5b50600436106100885760003560e01c80634f6ccce71161005b5780634f6ccce7146101155780636352211e1461014557806370a082311461017557806395d89b41146101a557610088565b806306fdde031461008d57806318160ddd146100ab57806323b872dd146100c95780632f745c59146100e5575b600080fd5b6100956101c3565b6040516100a29190610869565b60405180910390f35b6100b3610255565b6040516100c091906108a4565b60405180910390f35b6100e360048036038101906100de919061094e565b610262565b005b6100ff60048036038101906100fa91906109a1565b610272565b60405161010c91906108a4565b60405180910390f35b61012f600480360381019061012a91906109e1565b610322565b60405161013c91906108a4565b60405180910390f35b61015f600480360381019061015a91906109e1565b610391565b60405161016c9190610a1d565b60405180910390f35b61018f600480360381019061018a9190610a38565b610442565b60405161019c91906108a4565b60405180910390f35b6101ad6104f9565b6040516101ba9190610869565b60405180910390f35b6060600080546101d290610a94565b80601f01602080910402602001604051908101604052809291908181526020018280546101fe90610a94565b801561024b5780601f106102205761010080835404028352916020019161024b565b820191906000526020600020905b81548152906001019060200180831161022e57829003601f168201915b5050505050905090565b6000600580549050905090565b61026d83838361058b565b505050565b600061027d83610442565b82106102be576040517f08c379a00000000000000000000000000000000000000000000000000000000081526004016102b590610b37565b60405180910390fd5b600760008473ffffffffffffffffffffffffffffffffffffffff1673ffffffffffffffffffffffffffffffffffffffff168152602001908152602001600020828154811061030f5761030e610b57565b5b9060005260206000200154905092915050565b6000600580549050821061036b576040517f08c379a000000000000000000000000000000000000000000000000000000000815260040161036290610bf8565b60405180910390fd5b6005828154811061037f5761037e610b57565b5b90600052602060002001549050919050565b6000806002600084815260200190815260200160002060009054906101000a900473ffffffffffffffffffffffffffffffffffffffff169050600073ffffffffffffffffffffffffffffffffffffffff168173ffffffffffffffffffffffffffffffffffffffff1603610439576040517f08c379a000000000000000000000000000000000000000000000000000000000815260040161043090610c8a565b60405180910390fd5b80915050919050565b60008073ffffffffffffffffffffffffffffffffffffffff168273ffffffffffffffffffffffffffffffffffffffff16036104b2576040517f08c379a00000000000000000000000000000000000000000000000000000000081526004016104a990610c8a565b60405180910390fd5b600360008373ffffffffffffffffffffffffffffffffffffffff1673ffffffffffffffffffffffffffffffffffffffff168152602001908152602001600020549050919050565b60606001805461050890610a94565b80601f016020809104026020016040519081016040528092919081815260200182805461053490610a94565b80156105815780601f1061055657610100808354040283529160200191610581565b820191906000526020600020905b81548152906001019060200180831161056457829003601f168201915b5050505050905090565b600073ffffffffffffffffffffffffffffffffffffffff168273ffffffffffffffffffffffffffffffffffffffff16036105fa576040517f08c379a00000000000000000000000000000000000000000000000000000000081526004016105f190610d1c565b60405180910390fd5b8273ffffffffffffffffffffffffffffffffffffffff1661061a82610391565b73ffffffffffffffffffffffffffffffffffffffff1614610670576040517f08c379a000000000000000000000000000000000000000000000000000000000815260040161066790610dae565b60405180910390fd5b816002600083815260200190815260200160002060006101000a81548173ffffffffffffffffffffffffffffffffffffffff021916908373ffffffffffffffffffffffffffffffffffffffff1602179055506001600360008573ffffffffffffffffffffffffffffffffffffffff1673ffffffffffffffffffffffffffffffffffffffff16815260200190815260200160002060008282546107129190610dfd565b925050819055506001600360008473ffffffffffffffffffffffffffffffffffffffff1673ffffffffffffffffffffffffffffffffffffffff16815260200190815260200160002060008282546107699190610e31565b92505081905550808273ffffffffffffffffffffffffffffffffffffffff168473ffffffffffffffffffffffffffffffffffffffff167fddf252ad1be2c89b69c2b068fc378daa952ba7f163c4a11628f55a4df523b3ef60405160405180910390a4505050565b600081519050919050565b600082825260208201905092915050565b60005b8381101561080a5780820151818401526020810190506107ef565b83811115610819576000848401525b50505050565b6000601f19601f8301169050919050565b600061083b826107d0565b61084581856107db565b93506108558185602086016107ec565b61085e8161081f565b840191505092915050565b600060208201905081810360008301526108838184610830565b905092915050565b6000819050919050565b61089e8161088b565b82525050565b60006020820190506108b96000830184610895565b92915050565b600080fd5b600073ffffffffffffffffffffffffffffffffffffffff82169050919050565b60006108ef826108c4565b9050919050565b6108ff816108e4565b811461090a57600080fd5b50565b60008135905061091c816108f6565b92915050565b61092b8161088b565b811461093657600080fd5b50565b60008135905061094881610922565b92915050565b600080600060608486031215610967576109666108bf565b5b60006109758682870161090d565b93505060206109868682870161090d565b925050604061099786828701610939565b9150509250925092565b600080604083850312156109b8576109b76108bf565b5b60006109c68582860161090d565b92505060206109d785828601610939565b9150509250929050565b6000602082840312156109f7576109f66108bf565b5b6000610a0584828501610939565b91505092915050565b610a17816108e4565b82525050565b6000602082019050610a326000830184610a0e565b92915050565b600060208284031215610a4e57610a4d6108bf565b5b6000610a5c8482850161090d565b91505092915050565b7f4e487b7100000000000000000000000000000000000000000000000000000000600052602260045260246000fd5b60006002820490506001821680610aac57607f821691505b602082108103610abf57610abe610a65565b5b50919050565b7f455243373231456e756d3a206f776e657220696e646578206f7574206f66206260008201527f6f756e6473000000000000000000000000000000000000000000000000000000602082015250565b6000610b216025836107db565b9150610b2c82610ac5565b604082019050919050565b60006020820190508181036000830152610b5081610b14565b9050919050565b7f4e487b7100000000000000000000000000000000000000000000000000000000600052603260045260246000fd5b7f455243373231456e756d3a20676c6f62616c20696e646578206f7574206f662060008201527f626f756e64730000000000000000000000000000000000000000000000000000602082015250565b6000610be26026836107db565b9150610bed82610b86565b604082019050919050565b60006020820190508181036000830152610c1181610bd5565b9050919050565b7f4552433732313a4f776e657220717565727920666f74206e6f6e2d657869737460008201527f656e7320746f6b656e0000000000000000000000000000000000000000000000602082015250565b6000610c746029836107db565b9150610c7f82610c18565b604082019050919050565b60006020820190508181036000830152610ca381610c67565b9050919050565b7f4552433732313a205472616e7366657220746f20746865207a65726f2061646460008201527f7265737300000000000000000000000000000000000000000000000000000000602082015250565b6000610d066024836107db565b9150610d1182610caa565b604082019050919050565b60006020820190508181036000830152610d3581610cf9565b9050919050565b7f544552433732313a20547279696e6720746f20747261736e666572206120746f60008201527f6b656e206164647265737320646f6573206e6f74206f776e0000000000000000602082015250565b6000610d986038836107db565b9150610da382610d3c565b604082019050919050565b60006020820190508181036000830152610dc781610d8b565b9050919050565b7f4e487b7100000000000000000000000000000000000000000000000000000000600052601160045260246000fd5b6000610e088261088b565b9150610e138361088b565b925082821015610e2657610e25610dce565b5b828203905092915050565b6000610e3c8261088b565b9150610e478361088b565b9250827fffffffffffffffffffffffffffffffffffffffffffffffffffffffffffffffff03821115610e7c57610e7b610dce565b5b82820190509291505056fea2646970667358221220fa939095d4beab94c6f496d241c37bf445d13ff3fd0fa8c07d5260f3762895e264736f6c634300080d0033",
  "immutableReferences": {},
  "source": "// SPDX-License-Identifier: MIT\npragma solidity ^0.8.13;\n\nimport './ERC721Enumerable.sol';\nimport './ERC721Metadata.sol';\n\n\ncontract ERC721Connector is ERC721Metadata, ERC721Enumerable{\n\n    constructor(string memory name, string memory symbol) ERC721Metadata(name, symbol){\n\n    }\n\n}",
  "sourcePath": "/home/bedoeth/Documents/GitHub/NFT-Donem/src/contracts/ERC721Connector.sol",
  "compiler": {
    "name": "solc",
    "version": "0.8.13+commit.abaa5c0e.Emscripten.clang"
  },
  "schemaVersion": "3.4.7",
  "updatedAt": "2022-04-14T02:16:10.707Z",
  "devdoc": {
    "kind": "dev",
    "methods": {},
    "version": 1
  },
  "userdoc": {
    "kind": "user",
    "methods": {},
    "version": 1
  }
}