{
  "contractName": "ERC721Enumerable",
  "abi": [
    {
      "anonymous": false,
      "inputs": [
        {
          "indexed": true,
          "internalType": "address",
          "name": "from",
          "type": "address"
        },
        {
          "indexed": true,
          "internalType": "address",
          "name": "to",
          "type": "address"
        },
        {
          "indexed": true,
          "internalType": "uint256",
          "name": "tokenID",
          "type": "uint256"
        }
      ],
      "name": "Transfer",
      "type": "event"
    },
    {
      "inputs": [
        {
          "internalType": "address",
          "name": "_owner",
          "type": "address"
        }
      ],
      "name": "balanceOf",
      "outputs": [
        {
          "internalType": "uint256",
          "name": "",
          "type": "uint256"
        }
      ],
      "stateMutability": "view",
      "type": "function"
    },
    {
      "inputs": [
        {
          "internalType": "uint256",
          "name": "_tokenID",
          "type": "uint256"
        }
      ],
      "name": "ownerOf",
      "outputs": [
        {
          "internalType": "address",
          "name": "",
          "type": "address"
        }
      ],
      "stateMutability": "view",
      "type": "function"
    },
    {
      "inputs": [
        {
          "internalType": "uint256",
          "name": "index",
          "type": "uint256"
        }
      ],
      "name": "tokenByINdex",
      "outputs": [
        {
          "internalType": "uint256",
          "name": "",
          "type": "uint256"
        }
      ],
      "stateMutability": "view",
      "type": "function"
    },
    {
      "inputs": [
        {
          "internalType": "address",
          "name": "owner",
          "type": "address"
        },
        {
          "internalType": "uint256",
          "name": "index",
          "type": "uint256"
        }
      ],
      "name": "tokenOfOwnerByIndex",
      "outputs": [
        {
          "internalType": "uint256",
          "name": "",
          "type": "uint256"
        }
      ],
      "stateMutability": "view",
      "type": "function"
    },
    {
      "inputs": [],
      "name": "totalSupply",
      "outputs": [
        {
          "internalType": "uint256",
          "name": "",
          "type": "uint256"
        }
      ],
      "stateMutability": "view",
      "type": "function"
    }
  ],
  "bytecode": "0x608060405234801561001057600080fd5b50610780806100206000396000f3fe608060405234801561001057600080fd5b50600436106100575760003560e01c806318160ddd1461005c5780632f745c591461007a5780636352211e146100aa57806370a08231146100da578063cd66db701461010a575b600080fd5b61006461013a565b60405161007191906103e6565b60405180910390f35b610094600480360381019061008f9190610490565b610147565b6040516100a191906103e6565b60405180910390f35b6100c460048036038101906100bf91906104d0565b6101f7565b6040516100d1919061050c565b60405180910390f35b6100f460048036038101906100ef9190610527565b6102a7565b60405161010191906103e6565b60405180910390f35b610124600480360381019061011f91906104d0565b61035e565b60405161013191906103e6565b60405180910390f35b6000600280549050905090565b6000610152836102a7565b8210610193576040517f08c379a000000000000000000000000000000000000000000000000000000000815260040161018a906105d7565b60405180910390fd5b600460008473ffffffffffffffffffffffffffffffffffffffff1673ffffffffffffffffffffffffffffffffffffffff16815260200190815260200160002082815481106101e4576101e36105f7565b5b9060005260206000200154905092915050565b60008060008084815260200190815260200160002060009054906101000a900473ffffffffffffffffffffffffffffffffffffffff169050600073ffffffffffffffffffffffffffffffffffffffff168173ffffffffffffffffffffffffffffffffffffffff160361029e576040517f08c379a000000000000000000000000000000000000000000000000000000000815260040161029590610698565b60405180910390fd5b80915050919050565b60008073ffffffffffffffffffffffffffffffffffffffff168273ffffffffffffffffffffffffffffffffffffffff1603610317576040517f08c379a000000000000000000000000000000000000000000000000000000000815260040161030e90610698565b60405180910390fd5b600160008373ffffffffffffffffffffffffffffffffffffffff1673ffffffffffffffffffffffffffffffffffffffff168152602001908152602001600020549050919050565b600060028054905082106103a7576040517f08c379a000000000000000000000000000000000000000000000000000000000815260040161039e9061072a565b60405180910390fd5b600282815481106103bb576103ba6105f7565b5b90600052602060002001549050919050565b6000819050919050565b6103e0816103cd565b82525050565b60006020820190506103fb60008301846103d7565b92915050565b600080fd5b600073ffffffffffffffffffffffffffffffffffffffff82169050919050565b600061043182610406565b9050919050565b61044181610426565b811461044c57600080fd5b50565b60008135905061045e81610438565b92915050565b61046d816103cd565b811461047857600080fd5b50565b60008135905061048a81610464565b92915050565b600080604083850312156104a7576104a6610401565b5b60006104b58582860161044f565b92505060206104c68582860161047b565b9150509250929050565b6000602082840312156104e6576104e5610401565b5b60006104f48482850161047b565b91505092915050565b61050681610426565b82525050565b600060208201905061052160008301846104fd565b92915050565b60006020828403121561053d5761053c610401565b5b600061054b8482850161044f565b91505092915050565b600082825260208201905092915050565b7f455243373231456e756d3a206f776e657220696e646578206f7574206f66206260008201527f6f756e6473000000000000000000000000000000000000000000000000000000602082015250565b60006105c1602583610554565b91506105cc82610565565b604082019050919050565b600060208201905081810360008301526105f0816105b4565b9050919050565b7f4e487b7100000000000000000000000000000000000000000000000000000000600052603260045260246000fd5b7f4552433732313a4f776e657220717565727920666f74206e6f6e2d657869737460008201527f656e7320746f6b656e0000000000000000000000000000000000000000000000602082015250565b6000610682602983610554565b915061068d82610626565b604082019050919050565b600060208201905081810360008301526106b181610675565b9050919050565b7f455243373231456e756d3a20676c6f62616c20696e646578206f7574206f662060008201527f626f756e64730000000000000000000000000000000000000000000000000000602082015250565b6000610714602683610554565b915061071f826106b8565b604082019050919050565b6000602082019050818103600083015261074381610707565b905091905056fea26469706673582212201df882f01ed8c7aa0a144a867fa1e8acd230f3666ada982e907a480ce1eddeaa64736f6c634300080d0033",
  "immutableReferences": {},
  "source": "// SPDX-License-Identifier: MIT\npragma solidity ^0.8.13;\n\nimport './ERC721.sol';\n\ncontract ERC721Enumerable is ERC721{\n\n    uint256[] private _allTokens;\n\n    //mapping from tokenID to position in _allTokens array\n    mapping(uint256 => uint256) private _allTokensIndex;\n\n    //mapping of owner to list of all owner token ids\n    mapping(address => uint256[]) private _ownedTokens;\n\n    //mapping from tokenID index of the owner tokens list\n    mapping(uint256 => uint256) private _ownedTokensIndex; \n\n    function _mint(address to, uint256 tokenID) internal override(ERC721) {\n        super._mint(to,tokenID);\n        _addTokensToAllTokenEnumeration(tokenID);\n        _addTokensToOwnerEnumeration(to, tokenID);\n    }\n\n    //add tokens to the _allTokens array and set the positions of the token index\n    function _addTokensToAllTokenEnumeration(uint256 tokenID) private{\n        _allTokensIndex[tokenID] = _allTokens.length; //tokenID position\n        _allTokens.push(tokenID);\n    }\n\n    \n    function _addTokensToOwnerEnumeration(address to, uint256 tokenID) private{\n        _ownedTokens[to].push(tokenID);\n        _ownedTokensIndex[tokenID] = _ownedTokens[to].length;\n    }\n\n    function tokenByINdex(uint256 index) public view returns(uint256) {\n        require(index < _allTokens.length, \"ERC721Enum: global index out of bounds\");\n        return _allTokens[index];\n    }\n\n    function tokenOfOwnerByIndex(address owner, uint256 index) public view returns(uint256){\n        require(index < balanceOf(owner), \"ERC721Enum: owner index out of bounds\");\n        return _ownedTokens[owner][index]; \n    }\n\n    //return the total supply of the _allTokens array\n    function totalSupply() public view returns(uint256){\n        return _allTokens.length;\n    }\n}",
  "sourcePath": "/home/bedo/Desktop/NFT-Donem/src/contracts/ERC721Enumerable.sol",
  "compiler": {
    "name": "solc",
    "version": "0.8.13+commit.abaa5c0e.Emscripten.clang"
  },
  "schemaVersion": "3.4.6",
  "updatedAt": "2022-04-12T01:16:11.541Z",
  "devdoc": {
    "kind": "dev",
    "methods": {},
    "version": 1
  },
  "userdoc": {
    "kind": "user",
    "methods": {},
    "version": 1
  }
}