{
  "contractName": "Pogz",
  "abi": [
    {
      "inputs": [],
      "stateMutability": "nonpayable",
      "type": "constructor"
    },
    {
      "anonymous": false,
      "inputs": [
        {
          "indexed": true,
          "internalType": "address",
          "name": "from",
          "type": "address"
        },
        {
          "indexed": true,
          "internalType": "address",
          "name": "to",
          "type": "address"
        },
        {
          "indexed": true,
          "internalType": "uint256",
          "name": "tokenID",
          "type": "uint256"
        }
      ],
      "name": "Transfer",
      "type": "event"
    },
    {
      "inputs": [
        {
          "internalType": "uint256",
          "name": "",
          "type": "uint256"
        }
      ],
      "name": "PogZ",
      "outputs": [
        {
          "internalType": "string",
          "name": "",
          "type": "string"
        }
      ],
      "stateMutability": "view",
      "type": "function",
      "constant": true
    },
    {
      "inputs": [],
      "name": "name",
      "outputs": [
        {
          "internalType": "string",
          "name": "",
          "type": "string"
        }
      ],
      "stateMutability": "view",
      "type": "function",
      "constant": true
    },
    {
      "inputs": [],
      "name": "symbol",
      "outputs": [
        {
          "internalType": "string",
          "name": "",
          "type": "string"
        }
      ],
      "stateMutability": "view",
      "type": "function",
      "constant": true
    },
    {
      "inputs": [
        {
          "internalType": "string",
          "name": "_pogz",
          "type": "string"
        }
      ],
      "name": "mint",
      "outputs": [],
      "stateMutability": "nonpayable",
      "type": "function"
    }
  ],
  "bytecode": "0x60806040523480156200001157600080fd5b506040518060400160405280600481526020017f506f677a000000000000000000000000000000000000000000000000000000008152506040518060400160405280600381526020017f504f4700000000000000000000000000000000000000000000000000000000008152508181816000908051906020019062000098929190620000bc565b508060019080519060200190620000b1929190620000bc565b5050505050620001d0565b828054620000ca906200019b565b90600052602060002090601f016020900481019282620000ee57600085556200013a565b82601f106200010957805160ff19168380011785556200013a565b828001600101855582156200013a579182015b82811115620001395782518255916020019190600101906200011c565b5b5090506200014991906200014d565b5090565b5b80821115620001685760008160009055506001016200014e565b5090565b7f4e487b7100000000000000000000000000000000000000000000000000000000600052602260045260246000fd5b60006002820490506001821680620001b457607f821691505b602082108103620001ca57620001c96200016c565b5b50919050565b610c3e80620001e06000396000f3fe608060405234801561001057600080fd5b506004361061004c5760003560e01c806306fdde0314610051578063244fa6b81461006f57806395d89b411461009f578063d85d3d27146100bd575b600080fd5b6100596100d9565b604051610066919061071b565b60405180910390f35b61008960048036038101906100849190610787565b61016b565b604051610096919061071b565b60405180910390f35b6100a7610217565b6040516100b4919061071b565b60405180910390f35b6100d760048036038101906100d291906108e9565b6102a9565b005b6060600080546100e890610961565b80601f016020809104026020016040519081016040528092919081815260200182805461011490610961565b80156101615780601f1061013657610100808354040283529160200191610161565b820191906000526020600020905b81548152906001019060200180831161014457829003601f168201915b5050505050905090565b6004818154811061017b57600080fd5b90600052602060002001600091509050805461019690610961565b80601f01602080910402602001604051908101604052809291908181526020018280546101c290610961565b801561020f5780601f106101e45761010080835404028352916020019161020f565b820191906000526020600020905b8154815290600101906020018083116101f257829003601f168201915b505050505081565b60606001805461022690610961565b80601f016020809104026020016040519081016040528092919081815260200182805461025290610961565b801561029f5780601f106102745761010080835404028352916020019161029f565b820191906000526020600020905b81548152906001019060200180831161028257829003601f168201915b5050505050905090565b6005816040516102b991906109ce565b908152602001604051809103902060009054906101000a900460ff1615610315576040517f08c379a000000000000000000000000000000000000000000000000000000000815260040161030c90610a31565b60405180910390fd5b6004819080600181540180825580915050600190039060005260206000200160009091909190915090805190602001906103509291906105df565b50600060016004805490506103659190610a80565b905061037133826103ac565b600160058360405161038391906109ce565b908152602001604051809103902060006101000a81548160ff0219169083151502179055505050565b600073ffffffffffffffffffffffffffffffffffffffff168273ffffffffffffffffffffffffffffffffffffffff160361041b576040517f08c379a000000000000000000000000000000000000000000000000000000000815260040161041290610b26565b60405180910390fd5b6104248161056d565b15610464576040517f08c379a000000000000000000000000000000000000000000000000000000000815260040161045b90610b92565b60405180910390fd5b816002600083815260200190815260200160002060006101000a81548173ffffffffffffffffffffffffffffffffffffffff021916908373ffffffffffffffffffffffffffffffffffffffff1602179055506001600360008473ffffffffffffffffffffffffffffffffffffffff1673ffffffffffffffffffffffffffffffffffffffff16815260200190815260200160002060008282546105069190610bb2565b92505081905550808273ffffffffffffffffffffffffffffffffffffffff16600073ffffffffffffffffffffffffffffffffffffffff167fddf252ad1be2c89b69c2b068fc378daa952ba7f163c4a11628f55a4df523b3ef60405160405180910390a45050565b6000806002600084815260200190815260200160002060009054906101000a900473ffffffffffffffffffffffffffffffffffffffff169050600073ffffffffffffffffffffffffffffffffffffffff168173ffffffffffffffffffffffffffffffffffffffff161415915050919050565b8280546105eb90610961565b90600052602060002090601f01602090048101928261060d5760008555610654565b82601f1061062657805160ff1916838001178555610654565b82800160010185558215610654579182015b82811115610653578251825591602001919060010190610638565b5b5090506106619190610665565b5090565b5b8082111561067e576000816000905550600101610666565b5090565b600081519050919050565b600082825260208201905092915050565b60005b838110156106bc5780820151818401526020810190506106a1565b838111156106cb576000848401525b50505050565b6000601f19601f8301169050919050565b60006106ed82610682565b6106f7818561068d565b935061070781856020860161069e565b610710816106d1565b840191505092915050565b6000602082019050818103600083015261073581846106e2565b905092915050565b6000604051905090565b600080fd5b600080fd5b6000819050919050565b61076481610751565b811461076f57600080fd5b50565b6000813590506107818161075b565b92915050565b60006020828403121561079d5761079c610747565b5b60006107ab84828501610772565b91505092915050565b600080fd5b600080fd5b7f4e487b7100000000000000000000000000000000000000000000000000000000600052604160045260246000fd5b6107f6826106d1565b810181811067ffffffffffffffff82111715610815576108146107be565b5b80604052505050565b600061082861073d565b905061083482826107ed565b919050565b600067ffffffffffffffff821115610854576108536107be565b5b61085d826106d1565b9050602081019050919050565b82818337600083830152505050565b600061088c61088784610839565b61081e565b9050828152602081018484840111156108a8576108a76107b9565b5b6108b384828561086a565b509392505050565b600082601f8301126108d0576108cf6107b4565b5b81356108e0848260208601610879565b91505092915050565b6000602082840312156108ff576108fe610747565b5b600082013567ffffffffffffffff81111561091d5761091c61074c565b5b610929848285016108bb565b91505092915050565b7f4e487b7100000000000000000000000000000000000000000000000000000000600052602260045260246000fd5b6000600282049050600182168061097957607f821691505b60208210810361098c5761098b610932565b5b50919050565b600081905092915050565b60006109a882610682565b6109b28185610992565b93506109c281856020860161069e565b80840191505092915050565b60006109da828461099d565b915081905092915050565b7f506f677a3a20506f675a20616c72656164792065786973747300000000000000600082015250565b6000610a1b60198361068d565b9150610a26826109e5565b602082019050919050565b60006020820190508181036000830152610a4a81610a0e565b9050919050565b7f4e487b7100000000000000000000000000000000000000000000000000000000600052601160045260246000fd5b6000610a8b82610751565b9150610a9683610751565b925082821015610aa957610aa8610a51565b5b828203905092915050565b7f4552433732313a206d696e74696e6720746f20746865207a65726f206164647260008201527f6573730000000000000000000000000000000000000000000000000000000000602082015250565b6000610b1060238361068d565b9150610b1b82610ab4565b604082019050919050565b60006020820190508181036000830152610b3f81610b03565b9050919050565b7f4552433732313a20746f6b656e20616c647265616479206d696e746564000000600082015250565b6000610b7c601d8361068d565b9150610b8782610b46565b602082019050919050565b60006020820190508181036000830152610bab81610b6f565b9050919050565b6000610bbd82610751565b9150610bc883610751565b9250827fffffffffffffffffffffffffffffffffffffffffffffffffffffffffffffffff03821115610bfd57610bfc610a51565b5b82820190509291505056fea26469706673582212209b0ecae17c4e8c4f214f3774910989fd3121f9613259773c7c1f76c7860df1dd64736f6c634300080d0033",
  "immutableReferences": {},
  "source": "// SPDX-License-Identifier: MIT\npragma solidity ^0.8.13;\n\nimport \"./ERC721Metadata.sol\";\nimport \"./ERC721Connector.sol\";\n\ncontract Pogz is ERC721Connector {\n    //array to store nfts\n    string[] public PogZ;\n\n    mapping(string => bool) _pogzExists;\n\n    function mint(string memory _pogz) public {\n        require(!_pogzExists[_pogz], \"Pogz: PogZ already exists\");\n\n        //uint256 _id = PogZ.push(_pogz); old verison\n        PogZ.push(_pogz);\n        uint256 _id = PogZ.length - 1;\n\n        _mint(msg.sender, _id);\n        _pogzExists[_pogz] = true;\n    }\n\n    constructor() ERC721Connector(\"Pogz\", \"POG\") {}\n}\n",
  "sourcePath": "/home/bedo/Desktop/NFT/NFT/NFT-Donem/src/contracts/Pogz.sol",
  "compiler": {
    "name": "solc",
    "version": "0.8.13+commit.abaa5c0e.Emscripten.clang"
  },
  "schemaVersion": "3.4.6",
  "updatedAt": "2022-04-03T22:39:49.879Z",
  "networkType": "ethereum",
  "devdoc": {
    "kind": "dev",
    "methods": {},
    "version": 1
  },
  "userdoc": {
    "kind": "user",
    "methods": {},
    "version": 1
  }
}