{
  "contractName": "Pogz",
  "abi": [
    {
      "inputs": [],
      "stateMutability": "nonpayable",
      "type": "constructor"
    },
    {
      "anonymous": false,
      "inputs": [
        {
          "indexed": true,
          "internalType": "address",
          "name": "from",
          "type": "address"
        },
        {
          "indexed": true,
          "internalType": "address",
          "name": "to",
          "type": "address"
        },
        {
          "indexed": true,
          "internalType": "uint256",
          "name": "tokenID",
          "type": "uint256"
        }
      ],
      "name": "Transfer",
      "type": "event"
    },
    {
      "inputs": [
        {
          "internalType": "uint256",
          "name": "",
          "type": "uint256"
        }
      ],
      "name": "PogZ",
      "outputs": [
        {
          "internalType": "string",
          "name": "",
          "type": "string"
        }
      ],
      "stateMutability": "view",
      "type": "function",
      "constant": true
    },
    {
      "inputs": [
        {
          "internalType": "address",
          "name": "_owner",
          "type": "address"
        }
      ],
      "name": "balanceOf",
      "outputs": [
        {
          "internalType": "uint256",
          "name": "",
          "type": "uint256"
        }
      ],
      "stateMutability": "view",
      "type": "function",
      "constant": true
    },
    {
      "inputs": [],
      "name": "name",
      "outputs": [
        {
          "internalType": "string",
          "name": "",
          "type": "string"
        }
      ],
      "stateMutability": "view",
      "type": "function",
      "constant": true
    },
    {
      "inputs": [
        {
          "internalType": "uint256",
          "name": "_tokenID",
          "type": "uint256"
        }
      ],
      "name": "ownerOf",
      "outputs": [
        {
          "internalType": "address",
          "name": "",
          "type": "address"
        }
      ],
      "stateMutability": "view",
      "type": "function",
      "constant": true
    },
    {
      "inputs": [],
      "name": "symbol",
      "outputs": [
        {
          "internalType": "string",
          "name": "",
          "type": "string"
        }
      ],
      "stateMutability": "view",
      "type": "function",
      "constant": true
    },
    {
      "inputs": [
        {
          "internalType": "uint256",
          "name": "index",
          "type": "uint256"
        }
      ],
      "name": "tokenByINdex",
      "outputs": [
        {
          "internalType": "uint256",
          "name": "",
          "type": "uint256"
        }
      ],
      "stateMutability": "view",
      "type": "function",
      "constant": true
    },
    {
      "inputs": [
        {
          "internalType": "address",
          "name": "owner",
          "type": "address"
        },
        {
          "internalType": "uint256",
          "name": "index",
          "type": "uint256"
        }
      ],
      "name": "tokenOfOwnerByIndex",
      "outputs": [
        {
          "internalType": "uint256",
          "name": "",
          "type": "uint256"
        }
      ],
      "stateMutability": "view",
      "type": "function",
      "constant": true
    },
    {
      "inputs": [],
      "name": "totalSupply",
      "outputs": [
        {
          "internalType": "uint256",
          "name": "",
          "type": "uint256"
        }
      ],
      "stateMutability": "view",
      "type": "function",
      "constant": true
    },
    {
      "inputs": [
        {
          "internalType": "string",
          "name": "_pogz",
          "type": "string"
        }
      ],
      "name": "mint",
      "outputs": [],
      "stateMutability": "nonpayable",
      "type": "function"
    }
  ],
  "bytecode": "0x60806040523480156200001157600080fd5b506040518060400160405280600481526020017f506f677a000000000000000000000000000000000000000000000000000000008152506040518060400160405280600481526020017f504f475a000000000000000000000000000000000000000000000000000000008152508181816000908051906020019062000098929190620000bc565b508060019080519060200190620000b1929190620000bc565b5050505050620001d0565b828054620000ca906200019b565b90600052602060002090601f016020900481019282620000ee57600085556200013a565b82601f106200010957805160ff19168380011785556200013a565b828001600101855582156200013a579182015b82811115620001395782518255916020019190600101906200011c565b5b5090506200014991906200014d565b5090565b5b80821115620001685760008160009055506001016200014e565b5090565b7f4e487b7100000000000000000000000000000000000000000000000000000000600052602260045260246000fd5b60006002820490506001821680620001b457607f821691505b602082108103620001ca57620001c96200016c565b5b50919050565b61142980620001e06000396000f3fe608060405234801561001057600080fd5b50600436106100935760003560e01c80636352211e116100665780636352211e1461013457806370a082311461016457806395d89b4114610194578063cd66db70146101b2578063d85d3d27146101e257610093565b806306fdde031461009857806318160ddd146100b6578063244fa6b8146100d45780632f745c5914610104575b600080fd5b6100a06101fe565b6040516100ad9190610c02565b60405180910390f35b6100be610290565b6040516100cb9190610c3d565b60405180910390f35b6100ee60048036038101906100e99190610c98565b61029d565b6040516100fb9190610c02565b60405180910390f35b61011e60048036038101906101199190610d23565b610349565b60405161012b9190610c3d565b60405180910390f35b61014e60048036038101906101499190610c98565b6103f9565b60405161015b9190610d72565b60405180910390f35b61017e60048036038101906101799190610d8d565b6104aa565b60405161018b9190610c3d565b60405180910390f35b61019c610561565b6040516101a99190610c02565b60405180910390f35b6101cc60048036038101906101c79190610c98565b6105f3565b6040516101d99190610c3d565b60405180910390f35b6101fc60048036038101906101f79190610eef565b610662565b005b60606000805461020d90610f67565b80601f016020809104026020016040519081016040528092919081815260200182805461023990610f67565b80156102865780601f1061025b57610100808354040283529160200191610286565b820191906000526020600020905b81548152906001019060200180831161026957829003601f168201915b5050505050905090565b6000600480549050905090565b600881815481106102ad57600080fd5b9060005260206000200160009150905080546102c890610f67565b80601f01602080910402602001604051908101604052809291908181526020018280546102f490610f67565b80156103415780601f1061031657610100808354040283529160200191610341565b820191906000526020600020905b81548152906001019060200180831161032457829003601f168201915b505050505081565b6000610354836104aa565b8210610395576040517f08c379a000000000000000000000000000000000000000000000000000000000815260040161038c9061100a565b60405180910390fd5b600660008473ffffffffffffffffffffffffffffffffffffffff1673ffffffffffffffffffffffffffffffffffffffff16815260200190815260200160002082815481106103e6576103e561102a565b5b9060005260206000200154905092915050565b6000806002600084815260200190815260200160002060009054906101000a900473ffffffffffffffffffffffffffffffffffffffff169050600073ffffffffffffffffffffffffffffffffffffffff168173ffffffffffffffffffffffffffffffffffffffff16036104a1576040517f08c379a0000000000000000000000000000000000000000000000000000000008152600401610498906110cb565b60405180910390fd5b80915050919050565b60008073ffffffffffffffffffffffffffffffffffffffff168273ffffffffffffffffffffffffffffffffffffffff160361051a576040517f08c379a0000000000000000000000000000000000000000000000000000000008152600401610511906110cb565b60405180910390fd5b600360008373ffffffffffffffffffffffffffffffffffffffff1673ffffffffffffffffffffffffffffffffffffffff168152602001908152602001600020549050919050565b60606001805461057090610f67565b80601f016020809104026020016040519081016040528092919081815260200182805461059c90610f67565b80156105e95780601f106105be576101008083540402835291602001916105e9565b820191906000526020600020905b8154815290600101906020018083116105cc57829003601f168201915b5050505050905090565b6000600480549050821061063c576040517f08c379a00000000000000000000000000000000000000000000000000000000081526004016106339061115d565b60405180910390fd5b600482815481106106505761064f61102a565b5b90600052602060002001549050919050565b60098160405161067291906111b9565b908152602001604051809103902060009054906101000a900460ff16156106ce576040517f08c379a00000000000000000000000000000000000000000000000000000000081526004016106c59061121c565b60405180910390fd5b600881908060018154018082558091505060019003906000526020600020016000909190919091509080519060200190610709929190610ac6565b506000600160088054905061071e919061126b565b905061072a3382610765565b600160098360405161073c91906111b9565b908152602001604051809103902060006101000a81548160ff0219169083151502179055505050565b61076f8282610786565b61077881610947565b6107828282610990565b5050565b600073ffffffffffffffffffffffffffffffffffffffff168273ffffffffffffffffffffffffffffffffffffffff16036107f5576040517f08c379a00000000000000000000000000000000000000000000000000000000081526004016107ec90611311565b60405180910390fd5b6107fe81610a54565b1561083e576040517f08c379a00000000000000000000000000000000000000000000000000000000081526004016108359061137d565b60405180910390fd5b816002600083815260200190815260200160002060006101000a81548173ffffffffffffffffffffffffffffffffffffffff021916908373ffffffffffffffffffffffffffffffffffffffff1602179055506001600360008473ffffffffffffffffffffffffffffffffffffffff1673ffffffffffffffffffffffffffffffffffffffff16815260200190815260200160002060008282546108e0919061139d565b92505081905550808273ffffffffffffffffffffffffffffffffffffffff16600073ffffffffffffffffffffffffffffffffffffffff167fddf252ad1be2c89b69c2b068fc378daa952ba7f163c4a11628f55a4df523b3ef60405160405180910390a45050565b6004805490506005600083815260200190815260200160002081905550600481908060018154018082558091505060019003906000526020600020016000909190919091505550565b600660008373ffffffffffffffffffffffffffffffffffffffff1673ffffffffffffffffffffffffffffffffffffffff168152602001908152602001600020819080600181540180825580915050600190039060005260206000200160009091909190915055600660008373ffffffffffffffffffffffffffffffffffffffff1673ffffffffffffffffffffffffffffffffffffffff1681526020019081526020016000208054905060076000838152602001908152602001600020819055505050565b6000806002600084815260200190815260200160002060009054906101000a900473ffffffffffffffffffffffffffffffffffffffff169050600073ffffffffffffffffffffffffffffffffffffffff168173ffffffffffffffffffffffffffffffffffffffff161415915050919050565b828054610ad290610f67565b90600052602060002090601f016020900481019282610af45760008555610b3b565b82601f10610b0d57805160ff1916838001178555610b3b565b82800160010185558215610b3b579182015b82811115610b3a578251825591602001919060010190610b1f565b5b509050610b489190610b4c565b5090565b5b80821115610b65576000816000905550600101610b4d565b5090565b600081519050919050565b600082825260208201905092915050565b60005b83811015610ba3578082015181840152602081019050610b88565b83811115610bb2576000848401525b50505050565b6000601f19601f8301169050919050565b6000610bd482610b69565b610bde8185610b74565b9350610bee818560208601610b85565b610bf781610bb8565b840191505092915050565b60006020820190508181036000830152610c1c8184610bc9565b905092915050565b6000819050919050565b610c3781610c24565b82525050565b6000602082019050610c526000830184610c2e565b92915050565b6000604051905090565b600080fd5b600080fd5b610c7581610c24565b8114610c8057600080fd5b50565b600081359050610c9281610c6c565b92915050565b600060208284031215610cae57610cad610c62565b5b6000610cbc84828501610c83565b91505092915050565b600073ffffffffffffffffffffffffffffffffffffffff82169050919050565b6000610cf082610cc5565b9050919050565b610d0081610ce5565b8114610d0b57600080fd5b50565b600081359050610d1d81610cf7565b92915050565b60008060408385031215610d3a57610d39610c62565b5b6000610d4885828601610d0e565b9250506020610d5985828601610c83565b9150509250929050565b610d6c81610ce5565b82525050565b6000602082019050610d876000830184610d63565b92915050565b600060208284031215610da357610da2610c62565b5b6000610db184828501610d0e565b91505092915050565b600080fd5b600080fd5b7f4e487b7100000000000000000000000000000000000000000000000000000000600052604160045260246000fd5b610dfc82610bb8565b810181811067ffffffffffffffff82111715610e1b57610e1a610dc4565b5b80604052505050565b6000610e2e610c58565b9050610e3a8282610df3565b919050565b600067ffffffffffffffff821115610e5a57610e59610dc4565b5b610e6382610bb8565b9050602081019050919050565b82818337600083830152505050565b6000610e92610e8d84610e3f565b610e24565b905082815260208101848484011115610eae57610ead610dbf565b5b610eb9848285610e70565b509392505050565b600082601f830112610ed657610ed5610dba565b5b8135610ee6848260208601610e7f565b91505092915050565b600060208284031215610f0557610f04610c62565b5b600082013567ffffffffffffffff811115610f2357610f22610c67565b5b610f2f84828501610ec1565b91505092915050565b7f4e487b7100000000000000000000000000000000000000000000000000000000600052602260045260246000fd5b60006002820490506001821680610f7f57607f821691505b602082108103610f9257610f91610f38565b5b50919050565b7f455243373231456e756d3a206f776e657220696e646578206f7574206f66206260008201527f6f756e6473000000000000000000000000000000000000000000000000000000602082015250565b6000610ff4602583610b74565b9150610fff82610f98565b604082019050919050565b6000602082019050818103600083015261102381610fe7565b9050919050565b7f4e487b7100000000000000000000000000000000000000000000000000000000600052603260045260246000fd5b7f4552433732313a4f776e657220717565727920666f74206e6f6e2d657869737460008201527f656e7320746f6b656e0000000000000000000000000000000000000000000000602082015250565b60006110b5602983610b74565b91506110c082611059565b604082019050919050565b600060208201905081810360008301526110e4816110a8565b9050919050565b7f455243373231456e756d3a20676c6f62616c20696e646578206f7574206f662060008201527f626f756e64730000000000000000000000000000000000000000000000000000602082015250565b6000611147602683610b74565b9150611152826110eb565b604082019050919050565b600060208201905081810360008301526111768161113a565b9050919050565b600081905092915050565b600061119382610b69565b61119d818561117d565b93506111ad818560208601610b85565b80840191505092915050565b60006111c58284611188565b915081905092915050565b7f506f677a3a20506f675a20616c72656164792065786973747300000000000000600082015250565b6000611206601983610b74565b9150611211826111d0565b602082019050919050565b60006020820190508181036000830152611235816111f9565b9050919050565b7f4e487b7100000000000000000000000000000000000000000000000000000000600052601160045260246000fd5b600061127682610c24565b915061128183610c24565b9250828210156112945761129361123c565b5b828203905092915050565b7f4552433732313a206d696e74696e6720746f20746865207a65726f206164647260008201527f6573730000000000000000000000000000000000000000000000000000000000602082015250565b60006112fb602383610b74565b91506113068261129f565b604082019050919050565b6000602082019050818103600083015261132a816112ee565b9050919050565b7f4552433732313a20746f6b656e20616c647265616479206d696e746564000000600082015250565b6000611367601d83610b74565b915061137282611331565b602082019050919050565b600060208201905081810360008301526113968161135a565b9050919050565b60006113a882610c24565b91506113b383610c24565b9250827fffffffffffffffffffffffffffffffffffffffffffffffffffffffffffffffff038211156113e8576113e761123c565b5b82820190509291505056fea2646970667358221220efd4e89706f1b5bac76426d82a11c50ed1236843217be93d563b22e46f2b1f5d64736f6c634300080d0033",
  "immutableReferences": {},
  "source": "// SPDX-License-Identifier: MIT\npragma solidity ^0.8.13;\n\nimport \"./ERC721Metadata.sol\";\nimport \"./ERC721Connector.sol\";\n\ncontract Pogz is ERC721Connector {\n    //array to store nfts\n    string[] public PogZ;\n\n    mapping(string => bool) _pogzExists;\n\n    function mint(string memory _pogz) public {\n        require(!_pogzExists[_pogz], \"Pogz: PogZ already exists\");\n\n        //uint256 _id = PogZ.push(_pogz); old verison\n        PogZ.push(_pogz);\n        uint256 _id = PogZ.length - 1;\n\n        _mint(msg.sender, _id);\n        _pogzExists[_pogz] = true;\n    }\n\n    constructor() ERC721Connector(\"Pogz\", \"POGZ\") {}\n}\n",
  "sourcePath": "/home/bedo/Desktop/NFT-Donem/src/contracts/Pogz.sol",
  "compiler": {
    "name": "solc",
    "version": "0.8.13+commit.abaa5c0e.Emscripten.clang"
  },
  "schemaVersion": "3.4.6",
  "updatedAt": "2022-04-12T01:16:31.097Z",
  "networkType": "ethereum",
  "devdoc": {
    "kind": "dev",
    "methods": {},
    "version": 1
  },
  "userdoc": {
    "kind": "user",
    "methods": {},
    "version": 1
  }
}