{
  "contractName": "Pogz",
  "abi": [
    {
      "inputs": [],
      "stateMutability": "nonpayable",
      "type": "constructor"
    },
    {
      "anonymous": false,
      "inputs": [
        {
          "indexed": true,
          "internalType": "address",
          "name": "from",
          "type": "address"
        },
        {
          "indexed": true,
          "internalType": "address",
          "name": "to",
          "type": "address"
        },
        {
          "indexed": true,
          "internalType": "uint256",
          "name": "tokenID",
          "type": "uint256"
        }
      ],
      "name": "Transfer",
      "type": "event"
    },
    {
      "inputs": [
        {
          "internalType": "uint256",
          "name": "",
          "type": "uint256"
        }
      ],
      "name": "PogZ",
      "outputs": [
        {
          "internalType": "string",
          "name": "",
          "type": "string"
        }
      ],
      "stateMutability": "view",
      "type": "function",
      "constant": true
    },
    {
      "inputs": [
        {
          "internalType": "address",
          "name": "_owner",
          "type": "address"
        }
      ],
      "name": "balanceOf",
      "outputs": [
        {
          "internalType": "uint256",
          "name": "",
          "type": "uint256"
        }
      ],
      "stateMutability": "view",
      "type": "function",
      "constant": true
    },
    {
      "inputs": [],
      "name": "name",
      "outputs": [
        {
          "internalType": "string",
          "name": "",
          "type": "string"
        }
      ],
      "stateMutability": "view",
      "type": "function",
      "constant": true
    },
    {
      "inputs": [
        {
          "internalType": "uint256",
          "name": "_tokenID",
          "type": "uint256"
        }
      ],
      "name": "ownerOf",
      "outputs": [
        {
          "internalType": "address",
          "name": "",
          "type": "address"
        }
      ],
      "stateMutability": "view",
      "type": "function",
      "constant": true
    },
    {
      "inputs": [],
      "name": "symbol",
      "outputs": [
        {
          "internalType": "string",
          "name": "",
          "type": "string"
        }
      ],
      "stateMutability": "view",
      "type": "function",
      "constant": true
    },
    {
      "inputs": [
        {
          "internalType": "uint256",
          "name": "index",
          "type": "uint256"
        }
      ],
      "name": "tokenByIndex",
      "outputs": [
        {
          "internalType": "uint256",
          "name": "",
          "type": "uint256"
        }
      ],
      "stateMutability": "view",
      "type": "function",
      "constant": true
    },
    {
      "inputs": [
        {
          "internalType": "address",
          "name": "owner",
          "type": "address"
        },
        {
          "internalType": "uint256",
          "name": "index",
          "type": "uint256"
        }
      ],
      "name": "tokenOfOwnerByIndex",
      "outputs": [
        {
          "internalType": "uint256",
          "name": "",
          "type": "uint256"
        }
      ],
      "stateMutability": "view",
      "type": "function",
      "constant": true
    },
    {
      "inputs": [],
      "name": "totalSupply",
      "outputs": [
        {
          "internalType": "uint256",
          "name": "",
          "type": "uint256"
        }
      ],
      "stateMutability": "view",
      "type": "function",
      "constant": true
    },
    {
      "inputs": [
        {
          "internalType": "address",
          "name": "_from",
          "type": "address"
        },
        {
          "internalType": "address",
          "name": "_to",
          "type": "address"
        },
        {
          "internalType": "uint256",
          "name": "_tokenID",
          "type": "uint256"
        }
      ],
      "name": "transferFrom",
      "outputs": [],
      "stateMutability": "nonpayable",
      "type": "function"
    },
    {
      "inputs": [
        {
          "internalType": "string",
          "name": "_pogz",
          "type": "string"
        }
      ],
      "name": "mint",
      "outputs": [],
      "stateMutability": "nonpayable",
      "type": "function"
    }
  ],
  "bytecode": "0x60806040523480156200001157600080fd5b506040518060400160405280600481526020017f506f677a000000000000000000000000000000000000000000000000000000008152506040518060400160405280600481526020017f504f475a000000000000000000000000000000000000000000000000000000008152508181816000908051906020019062000098929190620000bc565b508060019080519060200190620000b1929190620000bc565b5050505050620001d0565b828054620000ca906200019b565b90600052602060002090601f016020900481019282620000ee57600085556200013a565b82601f106200010957805160ff19168380011785556200013a565b828001600101855582156200013a579182015b82811115620001395782518255916020019190600101906200011c565b5b5090506200014991906200014d565b5090565b5b80821115620001685760008160009055506001016200014e565b5090565b7f4e487b7100000000000000000000000000000000000000000000000000000000600052602260045260246000fd5b60006002820490506001821680620001b457607f821691505b602082108103620001ca57620001c96200016c565b5b50919050565b61181c80620001e06000396000f3fe608060405234801561001057600080fd5b506004361061009e5760003560e01c80634f6ccce7116100665780634f6ccce71461015b5780636352211e1461018b57806370a08231146101bb57806395d89b41146101eb578063d85d3d27146102095761009e565b806306fdde03146100a357806318160ddd146100c157806323b872dd146100df578063244fa6b8146100fb5780632f745c591461012b575b600080fd5b6100ab610225565b6040516100b89190610e7e565b60405180910390f35b6100c96102b7565b6040516100d69190610eb9565b60405180910390f35b6100f960048036038101906100f49190610f72565b6102c4565b005b61011560048036038101906101109190610fc5565b6102d4565b6040516101229190610e7e565b60405180910390f35b61014560048036038101906101409190610ff2565b610380565b6040516101529190610eb9565b60405180910390f35b61017560048036038101906101709190610fc5565b610430565b6040516101829190610eb9565b60405180910390f35b6101a560048036038101906101a09190610fc5565b61049f565b6040516101b29190611041565b60405180910390f35b6101d560048036038101906101d0919061105c565b610550565b6040516101e29190610eb9565b60405180910390f35b6101f3610607565b6040516102009190610e7e565b60405180910390f35b610223600480360381019061021e91906111be565b610699565b005b60606000805461023490611236565b80601f016020809104026020016040519081016040528092919081815260200182805461026090611236565b80156102ad5780601f10610282576101008083540402835291602001916102ad565b820191906000526020600020905b81548152906001019060200180831161029057829003601f168201915b5050505050905090565b6000600580549050905090565b6102cf83838361079c565b505050565b600981815481106102e457600080fd5b9060005260206000200160009150905080546102ff90611236565b80601f016020809104026020016040519081016040528092919081815260200182805461032b90611236565b80156103785780601f1061034d57610100808354040283529160200191610378565b820191906000526020600020905b81548152906001019060200180831161035b57829003601f168201915b505050505081565b600061038b83610550565b82106103cc576040517f08c379a00000000000000000000000000000000000000000000000000000000081526004016103c3906112d9565b60405180910390fd5b600760008473ffffffffffffffffffffffffffffffffffffffff1673ffffffffffffffffffffffffffffffffffffffff168152602001908152602001600020828154811061041d5761041c6112f9565b5b9060005260206000200154905092915050565b60006005805490508210610479576040517f08c379a00000000000000000000000000000000000000000000000000000000081526004016104709061139a565b60405180910390fd5b6005828154811061048d5761048c6112f9565b5b90600052602060002001549050919050565b6000806002600084815260200190815260200160002060009054906101000a900473ffffffffffffffffffffffffffffffffffffffff169050600073ffffffffffffffffffffffffffffffffffffffff168173ffffffffffffffffffffffffffffffffffffffff1603610547576040517f08c379a000000000000000000000000000000000000000000000000000000000815260040161053e9061142c565b60405180910390fd5b80915050919050565b60008073ffffffffffffffffffffffffffffffffffffffff168273ffffffffffffffffffffffffffffffffffffffff16036105c0576040517f08c379a00000000000000000000000000000000000000000000000000000000081526004016105b79061142c565b60405180910390fd5b600360008373ffffffffffffffffffffffffffffffffffffffff1673ffffffffffffffffffffffffffffffffffffffff168152602001908152602001600020549050919050565b60606001805461061690611236565b80601f016020809104026020016040519081016040528092919081815260200182805461064290611236565b801561068f5780601f106106645761010080835404028352916020019161068f565b820191906000526020600020905b81548152906001019060200180831161067257829003601f168201915b5050505050905090565b600a816040516106a99190611488565b908152602001604051809103902060009054906101000a900460ff1615610705576040517f08c379a00000000000000000000000000000000000000000000000000000000081526004016106fc906114eb565b60405180910390fd5b600981908060018154018082558091505060019003906000526020600020016000909190919091509080519060200190610740929190610d42565b5060006001600980549050610755919061153a565b905061076133826109e1565b6001600a836040516107739190611488565b908152602001604051809103902060006101000a81548160ff0219169083151502179055505050565b600073ffffffffffffffffffffffffffffffffffffffff168273ffffffffffffffffffffffffffffffffffffffff160361080b576040517f08c379a0000000000000000000000000000000000000000000000000000000008152600401610802906115e0565b60405180910390fd5b8273ffffffffffffffffffffffffffffffffffffffff1661082b8261049f565b73ffffffffffffffffffffffffffffffffffffffff1614610881576040517f08c379a000000000000000000000000000000000000000000000000000000000815260040161087890611672565b60405180910390fd5b816002600083815260200190815260200160002060006101000a81548173ffffffffffffffffffffffffffffffffffffffff021916908373ffffffffffffffffffffffffffffffffffffffff1602179055506001600360008573ffffffffffffffffffffffffffffffffffffffff1673ffffffffffffffffffffffffffffffffffffffff1681526020019081526020016000206000828254610923919061153a565b925050819055506001600360008473ffffffffffffffffffffffffffffffffffffffff1673ffffffffffffffffffffffffffffffffffffffff168152602001908152602001600020600082825461097a9190611692565b92505081905550808273ffffffffffffffffffffffffffffffffffffffff168473ffffffffffffffffffffffffffffffffffffffff167fddf252ad1be2c89b69c2b068fc378daa952ba7f163c4a11628f55a4df523b3ef60405160405180910390a4505050565b6109eb8282610a02565b6109f481610bc3565b6109fe8282610c0c565b5050565b600073ffffffffffffffffffffffffffffffffffffffff168273ffffffffffffffffffffffffffffffffffffffff1603610a71576040517f08c379a0000000000000000000000000000000000000000000000000000000008152600401610a689061175a565b60405180910390fd5b610a7a81610cd0565b15610aba576040517f08c379a0000000000000000000000000000000000000000000000000000000008152600401610ab1906117c6565b60405180910390fd5b816002600083815260200190815260200160002060006101000a81548173ffffffffffffffffffffffffffffffffffffffff021916908373ffffffffffffffffffffffffffffffffffffffff1602179055506001600360008473ffffffffffffffffffffffffffffffffffffffff1673ffffffffffffffffffffffffffffffffffffffff1681526020019081526020016000206000828254610b5c9190611692565b92505081905550808273ffffffffffffffffffffffffffffffffffffffff16600073ffffffffffffffffffffffffffffffffffffffff167fddf252ad1be2c89b69c2b068fc378daa952ba7f163c4a11628f55a4df523b3ef60405160405180910390a45050565b6005805490506006600083815260200190815260200160002081905550600581908060018154018082558091505060019003906000526020600020016000909190919091505550565b600760008373ffffffffffffffffffffffffffffffffffffffff1673ffffffffffffffffffffffffffffffffffffffff168152602001908152602001600020819080600181540180825580915050600190039060005260206000200160009091909190915055600760008373ffffffffffffffffffffffffffffffffffffffff1673ffffffffffffffffffffffffffffffffffffffff1681526020019081526020016000208054905060086000838152602001908152602001600020819055505050565b6000806002600084815260200190815260200160002060009054906101000a900473ffffffffffffffffffffffffffffffffffffffff169050600073ffffffffffffffffffffffffffffffffffffffff168173ffffffffffffffffffffffffffffffffffffffff161415915050919050565b828054610d4e90611236565b90600052602060002090601f016020900481019282610d705760008555610db7565b82601f10610d8957805160ff1916838001178555610db7565b82800160010185558215610db7579182015b82811115610db6578251825591602001919060010190610d9b565b5b509050610dc49190610dc8565b5090565b5b80821115610de1576000816000905550600101610dc9565b5090565b600081519050919050565b600082825260208201905092915050565b60005b83811015610e1f578082015181840152602081019050610e04565b83811115610e2e576000848401525b50505050565b6000601f19601f8301169050919050565b6000610e5082610de5565b610e5a8185610df0565b9350610e6a818560208601610e01565b610e7381610e34565b840191505092915050565b60006020820190508181036000830152610e988184610e45565b905092915050565b6000819050919050565b610eb381610ea0565b82525050565b6000602082019050610ece6000830184610eaa565b92915050565b6000604051905090565b600080fd5b600080fd5b600073ffffffffffffffffffffffffffffffffffffffff82169050919050565b6000610f1382610ee8565b9050919050565b610f2381610f08565b8114610f2e57600080fd5b50565b600081359050610f4081610f1a565b92915050565b610f4f81610ea0565b8114610f5a57600080fd5b50565b600081359050610f6c81610f46565b92915050565b600080600060608486031215610f8b57610f8a610ede565b5b6000610f9986828701610f31565b9350506020610faa86828701610f31565b9250506040610fbb86828701610f5d565b9150509250925092565b600060208284031215610fdb57610fda610ede565b5b6000610fe984828501610f5d565b91505092915050565b6000806040838503121561100957611008610ede565b5b600061101785828601610f31565b925050602061102885828601610f5d565b9150509250929050565b61103b81610f08565b82525050565b60006020820190506110566000830184611032565b92915050565b60006020828403121561107257611071610ede565b5b600061108084828501610f31565b91505092915050565b600080fd5b600080fd5b7f4e487b7100000000000000000000000000000000000000000000000000000000600052604160045260246000fd5b6110cb82610e34565b810181811067ffffffffffffffff821117156110ea576110e9611093565b5b80604052505050565b60006110fd610ed4565b905061110982826110c2565b919050565b600067ffffffffffffffff82111561112957611128611093565b5b61113282610e34565b9050602081019050919050565b82818337600083830152505050565b600061116161115c8461110e565b6110f3565b90508281526020810184848401111561117d5761117c61108e565b5b61118884828561113f565b509392505050565b600082601f8301126111a5576111a4611089565b5b81356111b584826020860161114e565b91505092915050565b6000602082840312156111d4576111d3610ede565b5b600082013567ffffffffffffffff8111156111f2576111f1610ee3565b5b6111fe84828501611190565b91505092915050565b7f4e487b7100000000000000000000000000000000000000000000000000000000600052602260045260246000fd5b6000600282049050600182168061124e57607f821691505b60208210810361126157611260611207565b5b50919050565b7f455243373231456e756d3a206f776e657220696e646578206f7574206f66206260008201527f6f756e6473000000000000000000000000000000000000000000000000000000602082015250565b60006112c3602583610df0565b91506112ce82611267565b604082019050919050565b600060208201905081810360008301526112f2816112b6565b9050919050565b7f4e487b7100000000000000000000000000000000000000000000000000000000600052603260045260246000fd5b7f455243373231456e756d3a20676c6f62616c20696e646578206f7574206f662060008201527f626f756e64730000000000000000000000000000000000000000000000000000602082015250565b6000611384602683610df0565b915061138f82611328565b604082019050919050565b600060208201905081810360008301526113b381611377565b9050919050565b7f4552433732313a4f776e657220717565727920666f74206e6f6e2d657869737460008201527f656e7320746f6b656e0000000000000000000000000000000000000000000000602082015250565b6000611416602983610df0565b9150611421826113ba565b604082019050919050565b6000602082019050818103600083015261144581611409565b9050919050565b600081905092915050565b600061146282610de5565b61146c818561144c565b935061147c818560208601610e01565b80840191505092915050565b60006114948284611457565b915081905092915050565b7f506f677a3a20506f675a20616c72656164792065786973747300000000000000600082015250565b60006114d5601983610df0565b91506114e08261149f565b602082019050919050565b60006020820190508181036000830152611504816114c8565b9050919050565b7f4e487b7100000000000000000000000000000000000000000000000000000000600052601160045260246000fd5b600061154582610ea0565b915061155083610ea0565b9250828210156115635761156261150b565b5b828203905092915050565b7f4552433732313a205472616e7366657220746f20746865207a65726f2061646460008201527f7265737300000000000000000000000000000000000000000000000000000000602082015250565b60006115ca602483610df0565b91506115d58261156e565b604082019050919050565b600060208201905081810360008301526115f9816115bd565b9050919050565b7f544552433732313a20547279696e6720746f20747261736e666572206120746f60008201527f6b656e206164647265737320646f6573206e6f74206f776e0000000000000000602082015250565b600061165c603883610df0565b915061166782611600565b604082019050919050565b6000602082019050818103600083015261168b8161164f565b9050919050565b600061169d82610ea0565b91506116a883610ea0565b9250827fffffffffffffffffffffffffffffffffffffffffffffffffffffffffffffffff038211156116dd576116dc61150b565b5b828201905092915050565b7f4552433732313a206d696e74696e6720746f20746865207a65726f206164647260008201527f6573730000000000000000000000000000000000000000000000000000000000602082015250565b6000611744602383610df0565b915061174f826116e8565b604082019050919050565b6000602082019050818103600083015261177381611737565b9050919050565b7f4552433732313a20746f6b656e20616c647265616479206d696e746564000000600082015250565b60006117b0601d83610df0565b91506117bb8261177a565b602082019050919050565b600060208201905081810360008301526117df816117a3565b905091905056fea26469706673582212208b0a12fd84e84e60e3a05b3aed8af1051b4050f00823276d03b2d6c1891f6bee64736f6c634300080d0033",
  "immutableReferences": {},
  "source": "// SPDX-License-Identifier: MIT\npragma solidity ^0.8.13;\n\nimport \"./ERC721Metadata.sol\";\nimport \"./ERC721Connector.sol\";\n\ncontract Pogz is ERC721Connector {\n    //array to store nfts\n    string[] public PogZ;\n\n    mapping(string => bool) _pogzExists;\n\n    function mint(string memory _pogz) public {\n        require(!_pogzExists[_pogz], \"Pogz: PogZ already exists\");\n\n        //uint256 _id = PogZ.push(_pogz); old verison\n        PogZ.push(_pogz);\n        uint256 _id = PogZ.length - 1;\n\n        _mint(msg.sender, _id);\n        _pogzExists[_pogz] = true;\n    }\n\n    constructor() ERC721Connector(\"Pogz\", \"POGZ\") {}\n}\n",
  "sourcePath": "/home/bedoeth/Documents/GitHub/NFT-Donem/src/contracts/Pogz.sol",
  "compiler": {
    "name": "solc",
    "version": "0.8.13+commit.abaa5c0e.Emscripten.clang"
  },
  "schemaVersion": "3.4.7",
  "updatedAt": "2022-04-15T11:22:18.286Z",
  "networkType": "ethereum",
  "devdoc": {
    "kind": "dev",
    "methods": {},
    "version": 1
  },
  "userdoc": {
    "kind": "user",
    "methods": {},
    "version": 1
  }
}